:100000000C94F6060C941E070C941E070C941E0705
:100010000C941E070C941E070C941E070C941E07CC
:100020000C941E070C941E070C941E070C941E07BC
:100030000C941E070C941E070C941E070C941E07AC
:100040000C94AD150C941E070C941E070C941E07FF
:100050000C941E070C941E070C941E070C941E078C
:100060000C94F7150C941E0700000000003E5B4F37
:100070005B3E3E6B4F6B3E1C3E7C3E1C183C7E3C08
:10008000181C577D571C1C5E7F5E1C00183C180016
:10009000FFE7C3E7FF0018241800FFE7DBE7FF30A6
:1000A000483A060E2629792926407F050507407F14
:1000B00005253F5A3CE73C5A7F3E1C1C08081C1C87
:1000C0003E7F14227F22145F5F005F5F06097F017D
:1000D0007F006689956A606060606094A2FFA29468
:1000E00008047E040810207E201008082A1C080836
:1000F0001C2A08081E101010100C1E0C1E0C303884
:100100003E3830060E3E0E06000000000000005F84
:1001100000000007000700147F147F14242A7F2AA0
:100120001223130864623649562050000807030062
:10013000001C2241000041221C002A1C7F1C2A08AE
:10014000083E080800807030000808080808000011
:1001500060600020100804023E5149453E00427F85
:10016000400072494949462141494D331814127FD4
:100170001027454545393C4A494931412111090774
:100180003649494936464949291E000014000000F5
:1001900040340000000814224114141414140041C7
:1001A00022140802015909063E415D594E7C121184
:1001B000127C7F494949363E414141227F414141BC
:1001C0003E7F494949417F090909013E4141517337
:1001D0007F0808087F00417F41002040413F017FA8
:1001E000081422417F404040407F021C027F7F0470
:1001F00008107F3E4141413E7F090909063E4151B9
:10020000215E7F09192946264949493203017F01A8
:10021000033F4040403F1F2040201F3F4038403FA9
:10022000631408146303047804036159494D4300BF
:100230007F4141410204081020004141417F0402F6
:10024000010204404040404000030708002054548D
:1002500078407F284444383844444428384444286B
:100260007F385454541800087E090218A4A49C78BE
:100270007F0804047800447D40002040403D007F1A
:100280001028440000417F40007C047804787C08FA
:100290000404783844444438FC18242418182424CE
:1002A00018FC7C08040408485454542404043F44B3
:1002B000243C4040207C1C2040201C3C4030403CE2
:1002C00044281028444C9090907C4464544C440042
:1002D00008364100000077000000413608000201A6
:1002E0000204023C2623263C1EA1A161123A404092
:1002F000207A38545455592155557941225454780F
:1003000042215554784020545579400C1E527212A7
:100310003955555559395454545939555454580030
:1003200000457C410002457D420001457C407D1234
:1003300011127DF0282528F07C5455450020545496
:100340007C547C0A097F4932494949323A44444441
:100350003A324A4848303A4141217A3A424020787C
:10036000009DA0A07D3D4242423D3D4040403D3C7D
:1003700024FF2424487E4943662B2FFC2F2BFF09A2
:1003800029F620C0887E0903205454794100004496
:100390007D413048484A32384040227A007A0A0A81
:1003A000727D0D19317D2629292F282629292926F4
:1003B00030484D4020380808080808080808382F39
:1003C00010C8ACBA2F102834FA00007B00000814C3
:1003D0002A142222142A14085500550055AA55AA99
:1003E00055AAFF55FF55FF000000FF00101010FF39
:1003F00000141414FF001010FF00FF1010F010F094
:10040000141414FC001414F700FF0000FF00FF1484
:1004100014F404FC141417101F10101F101F1414D0
:10042000141F00101010F0000000001F101010101A
:100430001F10101010F010000000FF10101010100E
:1004400010101010FF10000000FF140000FF00FF4C
:1004500000001F10170000FC04F4141417101714E8
:1004600014F404F40000FF00F7141414141414140A
:10047000F700F7141414171410101F101F1414147D
:10048000F4141010F010F000001F101F0000001FE7
:1004900014000000FC140000F010F01010FF10FF1A
:1004A000141414FF141010101F00000000F010FFAF
:1004B000FFFFFFFFF0F0F0F0F0FFFFFF0000000093
:1004C00000FFFF0F0F0F0F0F3844443844FC4A4A17
:1004D0004A347E02020606027E027E0263554941CC
:1004E000633844443C04407E201E2006027E020203
:1004F00099A5E7A5991C2A492A1C4C7201724C3017
:100500004A4D4D303048784830BC625A463D3E49ED
:100510004949007E0101017E2A2A2A2A2A44445F91
:10052000444440514A444040444A51400000FF0185
:1005300003E080FF000008086B6B08361236243693
:10054000060F090F060000181800000010100030F8
:1005500040FF0101001F01011E00191D1712003C80
:100560003C3C3C0000000000EF03038002CF03008E
:10057000C130ED0464031281E803850078CB0539AE
:100580002C003402F70120EA020000C00123C1015F
:1005900010C5023E28C701863601483701003A01DE
:1005A00055B1020018B603088227F20100260101A6
:1005B000E00F0F312B0C0E084EF1370710030E0918
:1005C00000E10F000E1403110731C148080F0C3170
:1005D000360F118029800000000000050001000096
:1005E000060D0701F50A0006050A03F50E000B0DBE
:1005F00009FFF420000B0F09FFF435000E0D0F0169
:10060000F54C000D0D0E00F5620002050503F564C2
:100610000005100601F56E00051006FFF5780008CC
:10062000080901F5800009090A00F88B0003060596
:10063000FFFE8E0005020600FC900003030400FF8D
:100640009200070C0600F59D00090D0900F5AC00AD
:10065000080D0900F5B900090D0900F5C800090DDC
:100660000900F5D700090C0900F5E500090D09009E
:10067000F5F400090D0901F50301090C0901F51153
:1006800001080D0900F51E01090D0900F52D0105F0
:10069000090500F93301050B0500F93A01090A0AB9
:1006A00001F7460109050A01FA4C01090A0A01F796
:1006B0005801080D0901F565010D0D0F01F47B01CD
:1006C0000C0D0D00F58F010C0D0C00F5A3010C0DA8
:1006D0000B01F5B7010E0D0D00F5CE010D0D0B0050
:1006E000F5E4010D0D0B00F5FA010C0D0D01F50EF1
:1006F000020F0D0E00F52702080D0700F534020A5F
:100700000E0900F546020D0D0C00F55C020C0D0BF8
:1007100000F57002110D1000F58C020E0D0D00F5A4
:10072000A3020C0D0C01F5B7020C0D0B00F5CB026A
:100730000C100C01F5E3020C0D0C00F5F702090D8D
:100740000900F506030B0D0B02F518030C0D0D0245
:10075000F52C030C0C0D02F53E03100C1102F5569E
:10076000030D0D0D00F56C030B0D0B02F57E030B55
:100770000D0A00F59003080F06FFF59F03050C070F
:1007800002F5A703070F06FFF5B50308070A01F5F1
:10079000BC030901090003BE0304030602F5C003FC
:1007A00009090900F9CB03080E0900F4D903080967
:1007B0000800F9E2030A0E0900F4F4030709070030
:1007C000F9FC030B1109FEF41404090C0900F922C9
:1007D00004090E0A00F43204050D0501F53B040975
:1007E0001006FFF54D040A0E0900F45F04050E051E
:1007F00001F468040D090E00F9770408090900F9ED
:10080000800408090900F989040A0C09FEF9980412
:10081000090C0900F9A60408080700F9AE04060946
:100820000600F9B504050C0501F6BD0408090A0126
:10083000F9C60407080801F9CD040A080C01F9D724
:10084000040A0909FFF9E304090C08FFF9F1040897
:10085000090700F9FA0408100600F40A05010C055E
:1008600002F50C05081006FEF41C0508020A01FC3E
:100870000C31C6184108200E38E0CF38A28802405B
:10088000C8130643FC320640987F84C0903204C0EF
:100890000101F04B993324780780380B89312664A5
:1008A000C7303C040038419F06483160CD032C0717
:1008B00027813905C4261098846610E0038022033E
:1008C000101900F00F3CF8CCC4E7473E38E1E79739
:1008D000CF00FA80088884621084210841002084B7
:1008E00010842108C62311001818D63818F71818D4
:1008F000080402010FF840201008006D9500FFC0A9
:10090000FF80060C306083041820C106000F0C8C99
:100910006E371B1F8FC7C763B1898380061E0E0EFB
:100920000C0C1C1818183838FC1F13D0E07038381D
:1009300018181808084FCFE01F11C0E060C1F03848
:100940000C060301198F000080C0E1E0B0989C8C78
:10095000FF070301800F88080783E0781C06030166
:10096000809C8780038707070703E399CCC663331E
:100970008987803FBF9080C04060203030101808C9
:10098000001E1331313A1C1C6EC6C6C644380E1CFC
:100990008C6C363B1D8E7E0E07070E0C0039CE0088
:1009A000039CE039CE00018C22200001C3C78E06D3
:1009B00001E03C078040FF8000000FF800601E034C
:1009C000C0781C3C78F040001C2737070E1C3060B4
:1009D0004000E0E0E00F80C30804C33C24E227337A
:1009E0003911C9937718007040FC0000801801800D
:1009F0003805805C09C11C1FC20C20C40EF3F03FF7
:100A0000E0C70C71C71CE1F039C38E38E30E71E703
:100A10001CFF0007D1C7382702700F00E00E00E06E
:100A20000E006087181E003FE030E0C187071C1CE5
:100A3000607381CE073838C0E7071C78FF801FF845
:100A400061C3043881CC0FE0E207103881811C18A3
:100A5000E38FFC003FF861C3043881CC0FE0E2076C
:100A6000103881801C00E00F80000791C7382700F4
:100A7000700F00E1FE0EE0CE0C60C71C1F001F7E51
:100A80001C383060E1C1C383060FFC1C383870602D
:100A9000C1C383870F9F003F0C0C1C1C18383838CB
:100AA000307070F807C0E0380C0701C070180E03F2
:100AB00080C330DC1E001F787183183981D00D008F
:100AC000FC07603B818C1C70E18FBE001F00C00CD6
:100AD00001C01C018038038038030170370EFFE02D
:100AE0001E078707838382C3C162E0B17099304DCE
:100AF000B8279C138C11C60CC70F47C03C3C38204C
:100B0000E085C413104E423A087821E083840C1823
:100B100010004007C1CE387387707707F0FE0EE0F3
:100B2000EE1CE1C6383E003FC0C70C71C71C718E79
:100B30003FC380300300700700F80007C0CE387351
:100B400087707707F07E0EE0EE0CE1C63836018044
:100B50003C2DFC3FC0E70C71C71C718E3F83B83B36
:100B6000833C71C71CF9F00C898C462380E0780E19
:100B7000032190CCC9C07FE9DF314E21C038060186
:100B8000C0380600C0380FC07CF38230270470469E
:100B900004E04E08E08E08E10F303C00FC73823820
:100BA00023843883903901A01C01C0180100F9F793
:100BB00030E230C238C43BC43AE83CE83CF018F0BC
:100BC0001860106010403F786183981D00700380AA
:100BD0001C01600B809C0860C38F7E00F9E618C280
:100BE0001C81A0340700C0180700E01C0FC03FE6BE
:100BF000198721C0300E0380601C0705C138EFFC47
:100C00000E08181818103030302060606040F0C6B0
:100C100010C610863086301E0C1820C18304183090
:100C20006083063C00181C34266643C3FF80C63030
:100C30000D9D8CCC6E263319BE66000078183030BE
:100C40003E73636363C6C6CC700F3B7070E0E0E236
:100C5000E4780000F01C060183E330CC6319CC6318
:100C600038CF1D800E75CBBEDE38727800E0340CB4
:100C70000180301F0180300601C0300600C0300600
:100C80000480E0001C19D8CC6660E180F07E43212E
:100C90008F00001E07030180D8FC76331999CCD64B
:100CA000773039C00F318CC631AE000381C00000EF
:100CB000E03018180C0603030180C2C1C0000F0009
:100CC000C0601806F390C8340F06C19866B9C00317
:100CD000CC63398C66318E707B99AFCE6663673397
:100CE00031998CCCE7C630737F73736367E6C7C6F0
:100CF0001E336363C3C6C6CC781DC3B1CC6319CEA3
:100D00006318CC3E1C0603E00D998CCC6E7633192B
:100D10009C7C060707C0763A3070606060E03D1446
:100D2000583860A2F008CCF63198C635C0E3636647
:100D30006666CCCCFEECE6CD8B268E1820E4D93648
:100D4000E5DA7719C6611039C7B0C0300C0300E18D
:100D50005A6700398CC321A0D068380C0404140CE5
:100D6000003E460C081020701A0E030E0C0C0818DA
:100D700018106030303060606030FFF00C060606FE
:100D8000040C0C0C06181818303030E0718F700805
:100D9000D70520007E001600000000240027002A4E
:100DA000000000000800020100000304070000002A
:100DB000000000000001020408102040800102042D
:100DC000081020010204081020000000002500285F
:100DD000002B0004040404040404040202020202BE
:100DE00002030303030303002617251711241FBE64
:100DF000CFEFD8E0DEBFCDBF11E0A0E0B1E0E2E18F
:100E0000F1E302C005900D92AA37B107D9F722E0AD
:100E1000AAE7B1E001C01D92A334B207E1F716E0E2
:100E2000C5EFD6E004C02197FE010E947118C43FAF
:100E3000D107C9F70E94D5170C947C180C940000B8
:100E400040919C01262F30E0240F311D21323105C5
:100E5000DCF420919D012430C9F4FC0180E090E095
:100E6000861758F430919C012191DC01A458BE4FA3
:100E7000A30FB11D2C930196F3CF80919C01680FB5
:100E800060939C0180E0089581E0089582E00895D8
:100E900008958FEF9FEF08958FEF9FEF0895809152
:100EA0007A0190E09195819591090895CF93DF9310
:100EB00000D0CDB7DEB7CB01642F49835A830E949F
:100EC00020074981842F5A81952F0F900F90DF9131
:100ED000CF910895CF93DF931F92CDB7DEB769838B
:100EE00061E0CE0101960E94200781E090E00F9022
:100EF000DF91CF910895FC01A5A1B6A19C9182A597
:100F000089238C93A5A1B6A19C9181A5892B8C9353
:100F100008950F931F93CF93DF93EC018B018DA95D
:100F2000811109C01EBD0DB407FEFDCF0EBD0DB46D
:100F300007FEFDCF2FC08130E9F480E1E9A1FAA1DD
:100F4000208117FF03C09DA1922B02C09EA1922376
:100F50009083EBA1FCA120819FA1922B9083EBA118
:100F6000FCA1208198A592239083000F111F81502E
:100F700029F710C0EF8DF8A11083CE010E947B07E6
:100F8000EF8DF8A10083CE01DF91CF911F910F91DA
:100F90000C947B07DF91CF911F910F910895FC0175
:100FA00085A9811105C06EBD0DB407FEFDCF089562
:100FB0008130E1F488E0A1A1B2A12C9167FF03C0C8
:100FC00095A1922B02C096A192239C93A3A1B4A1B8
:100FD0002C9197A1922B9C93660FA3A1B4A12C9165
:100FE00090A592239C93815031F70895A78DB0A1CD
:100FF0006C93CF010C947B07CF93DF93EC01ED8DC5
:10100000FE8D90818CA989238083CE010E94CF0719
:10101000ED8DFE8D90818BA9892B8083DF91CF91FF
:101020000895FC0185A9811104C091A182A19CBDF4
:101030008DBD08950F931F93CF93DF931F92CDB76C
:10104000DEB78C01DC01ED91FC910284F385E02D8B
:10105000698309956981662319F0F80165AD03C0BC
:10106000D801DE966C91C8010E94FC07D801ED9171
:10107000FC910688F789E02DC8010F90DF91CF9190
:101080001F910F910994AF92BF92CF92DF92EF928E
:10109000FF920F931F93CF93DF93EC0177FD38C03E
:1010A00088859985681779079CF557FD31C08A8531
:1010B0009B854817590764F569015A017B01E8814E
:1010C000F9810284F385E02DCE010995E881F9814B
:1010D00002A4F3A5E02D01E010E021E030E0A5013D
:1010E000B701CE010995B601CE010E948907E881BA
:1010F000F9810688F789E02DCE01DF91CF911F910C
:101100000F91FF90EF90DF90CF90BF90AF90099438
:10111000DF91CF911F910F91FF90EF90DF90CF90D3
:10112000BF90AF9008958F929F92AF92BF92CF924F
:10113000DF92EF92FF920F931F93CF93DF93EC0117
:1011400069014801BE2CAF2CE881F98102A4F3A506
:10115000E02D09959401D6010E945318611571057F
:101160008105910509F481C02DA921110FC061509D
:1011700071098109910908F478C0AEBC0DB407FE6D
:10118000FDCFBEBC0DB407FEFDCFF1CF213009F07D
:101190003FC0615071098109910908F466C03A2D78
:1011A00028E0E9A1FAA1508137FF03C04DA1452BEA
:1011B00002C04EA145234083EBA1FCA150814FA169
:1011C000452B4083EBA1FCA1508148A545234083DA
:1011D000330F215031F73B2D28E0E9A1FAA15081CE
:1011E00037FF03C04DA1452B02C04EA145234083CC
:1011F000EBA1FCA150814FA1452B4083EBA1FCA1A9
:10120000508148A545234083330F215031F7C1CF8A
:10121000FE1017C0EF8DF8A1F0826B017C01CC0CA1
:10122000DD1CEE1CFF1CC114D104E104F104E9F043
:10123000CE010E947B0781E0C81AD108E108F108BD
:10124000F2CF6B017C01EF8DF8A1A082CE010E944C
:101250007B07EF8DF8A1B082CE010E947B0721E0D1
:10126000C21AD108E108F10871F7DF91CF911F91FF
:101270000F91FF90EF90DF90CF90BF90AF909F9035
:101280008F900895AF92BF92CF92DF92EF92FF922C
:101290000F931F93CF93DF9300D000D0CDB7DEB76D
:1012A0006C01590177FD5DC0DC0118968D919C9110
:1012B0001997681779070CF054C02115310509F406
:1012C00050C037FF07C0C9010196480F591FB1949C
:1012D000A194B108F60182859385481759070CF04F
:1012E00040C0FA01EA0DFB1D9F012150310937FD75
:1012F00038C057FF03C05F0140E050E028173907AE
:101300001CF05C01A41AB50AD601ED91FC9102848F
:10131000F385E02DC6014B835C8369837A8309954D
:101320007801850121E030E04B815C8169817A811F
:10133000C6010E949308D601ED91FC910688F789B9
:10134000E02DC6010F900F900F900F90DF91CF917D
:101350001F910F91FF90EF90DF90CF90BF90AF90D3
:1013600009940F900F900F900F90DF91CF911F91E4
:101370000F91FF90EF90DF90CF90BF90AF900895C6
:10138000CF92DF92EF92FF920F931F93CF93DF9351
:1013900000D000D000D0CDB7DEB76C0157FD5FC0E4
:1013A000DC011A968D919C911B97481759070CF0F8
:1013B00056C02115310509F452C037FF07C0C901D5
:1013C0000196680F791F319521953109F6018085C5
:1013D0009185681779070CF042C0DB01A20FB31F9B
:1013E000FD013197F7FD3BC077FF03C09D0160E031
:1013F00070E0E817F9071CF09C01261B370BD6019B
:10140000ED91FC910284F385E02DC6012D833E838E
:101410004B835C8369837A830995780101E010E04E
:101420002D813E814B815C8169817A81C6010E9458
:101430009308D601ED91FC910688F789E02DC6014D
:1014400026960FB6F894DEBF0FBECDBFDF91CF91C9
:101450001F910F91FF90EF90DF90CF900994269607
:101460000FB6F894DEBF0FBECDBFDF91CF911F91B5
:101470000F91FF90EF90DF90CF9008956F927F9241
:101480008F929F92AF92BF92CF92DF92EF92FF9294
:101490000F931F93CF93DF9300D000D000D0CDB730
:1014A000DEB73C0147012115310509F47EC0011565
:1014B000110509F47AC037FF07C0C9010196680F0A
:1014C000791F319521953109D3011896AD90BC90C3
:1014D00019976A157B050CF068C017FF07C0C80193
:1014E0000196480F591F119501951109F301828545
:1014F0009385481759070CF058C06B01C20ED31ED4
:10150000D6011197B7FD51C07A01E00EF11EF70127
:101510003197F7FD4AC077FF03C0960160E070E0A5
:1015200057FF03C0870140E050E0AA15BB051CF03F
:101530009501261B370BE817F9071CF08C01041BDB
:10154000150BD301ED91FC910284F385E02DC301CD
:101550002D833E834B835C8369837A830995740171
:101560002D813E814B815C8169817A81C3010E941A
:101570009308D301ED91FC910688F789E02DC30112
:1015800026960FB6F894DEBF0FBECDBFDF91CF9188
:101590001F910F91FF90EF90DF90CF90BF90AF9091
:1015A0009F908F907F906F90099426960FB6F89435
:1015B000DEBF0FBECDBFDF91CF911F910F91FF9086
:1015C000EF90DF90CF90BF90AF909F908F907F90E3
:1015D0006F900895EF92FF920F931F93CF93DF9335
:1015E00077FD34C0DC011896ED91FC9119976E17C8
:1015F0007F0764F52115310549F137FF07C0F9016F
:1016000031964E0F5F1F319521953109DC011A96F5
:10161000ED91FC911B974E175F07C4F4EA01C20FCE
:10162000D31FDE011197B7FD11C057FF03C09E0104
:1016300040E050E0AE17BF071CF09F01241B350BA4
:101640007801890121E030E00E949308DF91CF9179
:101650001F910F91FF90EF900895EF92FF920F93DB
:101660001F93CF93DF9357FD33C0DC011A96ED91A2
:10167000FC911B974E175F075CF52115310541F171
:1016800037FF07C0F90131966E0F7F1F3195219505
:101690003109DC011896ED91FC9119976E177F07BF
:1016A000BCF4EB01C20FD31FDE011197B7FD10C0D0
:1016B00077FF03C09E0160E070E0AE17BF071CF02B
:1016C0009F01261B370B780101E010E00E94930870
:1016D000DF91CF911F910F91FF90EF9008958F921E
:1016E0009F92AF92BF92CF92DF92EF92FF920F93B1
:1016F0001F93CF93DF9347012115310509F44DC0A6
:101700000115110509F449C037FF07C0F9013196E9
:101710006E0F7F1F319521953109DC011896AD9030
:10172000BC9019976A157B05C4F517FF07C0F8012F
:1017300031964E0F5F1F119501951109DC011A9624
:10174000ED91FC911B974E175F073CF56B01C20EA4
:10175000D31EE6012197D7FD20C07A01E00EF11ECD
:10176000D7011197B7FD19C077FF03C0960160E05C
:1017700070E057FF03C0870140E050E0CA15DB0569
:101780001CF09501261B370BAE17BF071CF08F010D
:10179000041B150B74010E949308DF91CF911F91D8
:1017A0000F91FF90EF90DF90CF90BF90AF909F9000
:1017B0008F900895EF92FF920F931F93CF93DF9333
:1017C000EC0177FD22C08885998568177907ECF4CC
:1017D00057FD1BC08A859B8548175907B4F47901CA
:1017E000E881F98102A4F3A5E02D01E010E021E0F9
:1017F00030E0CE010995B701CE01DF91CF911F9165
:101800000F91FF90EF900C948907DF91CF911F917A
:101810000F91FF90EF900895CF93DF93EC010E941A
:1018200011088FA987FD06C0EB8DFC8D90818AA9D8
:1018300089238083DF91CF9108950895FC0187A9C2
:1018400087FD06C0A38DB48D9C9181A9892B8C93B3
:101850000895AF92BF92CF92DF92EF92FF920F93D3
:101860001F93CF93DF93EC016B015A012150310993
:101870007901E60EF71E01501109040F151F809122
:101880000601909107016817790739F480910401E6
:1018900090910501E816F906A1F06AE2CE010E94D6
:1018A000FC07B601CE010E948907B701CE010E9454
:1018B0008907D0920701C0920601F0920501E092DB
:1018C00004018091020190910301A816B90639F430
:1018D000809100019091010108171907A1F06BE2B6
:1018E000CE010E94FC07B501CE010E948907B80114
:1018F000CE010E948907B0920301A09202011093C9
:101900000101009300016CE2CE01DF91CF911F91A4
:101910000F91FF90EF90DF90CF90BF90AF900C941D
:10192000FC070F931F93CF93DF931F92CDB7DEB7C2
:101930008C016370DC0156966C935697623059F0B7
:101940006330C9F0613029F088E4898380EF90E04A
:1019500007C088E211C088E8898380EF90E0D80151
:1019600019969C938E93189780E491E01B969C9314
:101970008E931A970BC088EE898380E491E0F8017A
:101980009187808780EF90E093878287C8010E94CB
:101990001108D801D7968C91D79787FD09C05B961F
:1019A000ED91FC915C979081D2968C9189238083F4
:1019B000D8015D96ED91FC915E979081D4968C91C3
:1019C0008923808366E3C8010E94CF07D8015D9612
:1019D000ED91FC915E979081D3968C91D397892B52
:1019E0008083D5968C91823029F06981C8010E944C
:1019F000CF0709C0F80180A98823B9F369817A81EA
:101A0000C8010E948907D801D7968C91D79787FD86
:101A100009C05B96ED91FC915C979081D1968C9179
:101A2000892B80830F90DF91CF911F910F910895A3
:101A30008F929F92AF92BF92CF92DF92EF92FF92DE
:101A40000F931F93CF93DF931F92CDB7DEB74C0157
:101A50008A01E22E69830E941108D401D7968C91E5
:101A6000D797698187FD09C05B96ED91FC915C97E2
:101A70009081D2968C9189238083D4015D96ED91DB
:101A8000FC915E979081D4968C9189238083C401C8
:101A90000E94CF07D4015D96ED91FC915E979081F5
:101AA000D3968C91892B8083C12CD12CF12CCE1410
:101AB000DF04ECF4F40185A9823059F480A988236D
:101AC00041F0D8016D917D918D01C4010E9489077B
:101AD0000AC05801BFEFAB1ABB0AF8016491C401F8
:101AE0000E94CF078501FFEFCF1ADF0AE0CFD401B4
:101AF000D7968C91D79787FD09C05B96ED91FC91A5
:101B00005C979081D1968C91892B80830F90DF9187
:101B1000CF911F910F91FF90EF90DF90CF90BF90EA
:101B2000AF909F908F900895611102C060E201C054
:101B300061E220E040E050E00C94180D0895FC01B3
:101B40006370668B8481958126813781613039F09D
:101B5000633029F091878087338722870895318702
:101B600020879387828708952F923F924F925F92AA
:101B70006F927F928F929F92AF92BF92CF92DF929D
:101B8000EF92FF920F931F93CF93DF93CDB7DEB702
:101B90006C970FB6F894DEBF0FBECDBF9C8F8B8FB6
:101BA0001B014A01198708873701A982DC01599670
:101BB0004D915C915A974115510509F0FFC0189657
:101BC0008D919C911997681779070CF0E1C11A96CD
:101BD0008D919C911B97881699060CF0D9C1EC2D1C
:101BE000F0E0FB83EA83AB0166E0C69E400D511D29
:101BF00011245D874C87141615060CF0C9C18A2D77
:101C000090E09B878A8733E0880F991F3A95E1F728
:101C10009F878E87880D991D181619060CF0B8C17C
:101C200058968C91811103C0203B08F02F5FAB8D3B
:101C3000BC8DED91FC9111970284F385E02DCD01CF
:101C40002A8F09952A8DB5E02B9F90011124EC2D48
:101C5000F0E0F98BE88BA1014B5F5F4F5B8B4A8B08
:101C60003D822C822101B901621973097D8B6C8B35
:101C70009981892F90E09F8B8E8BD4011896B98F14
:101C8000A88FEC89FD89E40DF51DE859FF4FD4902C
:101C900054019F828E82D0FE16C0AB8DBC8DED911B
:101CA000FC91B1E0CB1209C02981213031F40484C8
:101CB000F585E02D2885398519C00684F785E02D46
:101CC000E884F9841DC0488559856416750619F1A4
:101CD000AB8DBC8DED91FC91B1E0CB120DC0298193
:101CE000213051F40484F585E02D9301A501B20162
:101CF0008B8D9C8D09950FC00684F785E02D7301AF
:101D00000A851B852A813B814E815F816C817D81A3
:101D10008B8D9C8D0995D6943FEFA31AB30A4E8103
:101D20005F816E897F89460F571F5F834E83888D41
:101D3000998DA816B90609F0AECF9FEF491A590A36
:101D4000AC81BD81E889F989AE0FBF1FBD83AC832B
:101D50002A893B894216530609F093CF4885598555
:101D60006416750609F4F2C0AB8DBC8DED91FC9143
:101D7000B1E0CB1211C02981213071F4B1016B5F48
:101D80007F4F0088F189E02D830128E030E0A40135
:101D90008B8D9C8D0995DAC06C857D854A815B8130
:101DA000641B750B0684F785E02D73010E851F8576
:101DB0009A01A4018B8D9C8D0995C8C0FA013496B7
:101DC0009491329765917491291BCB01B7E02B9FB9
:101DD000800D911D1124FA01259134913B8B2A8BA2
:101DE000FC01A590B490FC01329654903196349148
:101DF0003C87329614913196749041E04C1518F05E
:101E00005981523068F0612F012E000C770B7B83D3
:101E10006A83872D072C000C990B9D838C8304C04B
:101E20001D821C821B821A82AB8DBC8DED91FC91B0
:101E300011970284F385E02DCD010995412CD12C19
:101E4000612CF981EF2FF0E0FF83EE832C2D30E041
:101E50003B872A87A401470D511D77FC5A955F8B5C
:101E60004E8BB101610F711D17FD7A95798F688FC7
:101E70005C85651608F06AC0262D30E04C815D81D6
:101E8000420F531F6E817F81469FC001479F900D77
:101E9000569F900D1124DC01A80DB91DB98BA88B9C
:101EA000842D712CEE89FF89E20FF31FFD8BEC8BE3
:101EB000751408F048C071E0780F7E87877041F490
:101EC000C5010196EA89FB89EA0DFB1DD4905C01EE
:101ED000D7FE35C0AB8DBC8DED91FC91B1E0CB123E
:101EE00012C02981213079F40484F585E02D2885FC
:101EF00039854C895D89688D798D670D711D8B8D54
:101F00009C8D09951CC08A819B81870D911D4A85F6
:101F10005B85849FB001859F700D949F700D112487
:101F2000620D731D0684F785E02DE884F9840E8127
:101F30001F819A01488959898B8D9C8D0995DD0CEB
:101F400073948E85B5CF450C639492CFAB8DBC8DC9
:101F5000ED91FC9111970688F789E02DCD016C96E3
:101F60000FB6F894DEBF0FBECDBFDF91CF911F91AA
:101F70000F91FF90EF90DF90CF90BF90AF909F9028
:101F80008F907F906F905F904F903F902F9009942B
:101F90006C960FB6F894DEBF0FBECDBFDF91CF9128
:101FA0001F910F91FF90EF90DF90CF90BF90AF9077
:101FB0009F908F907F906F905F904F903F902F9069
:101FC00008958F929F92AF92CF92EF92FF920F93CC
:101FD0001F93CF93DF93EC01262F898D9A8D009765
:101FE00009F042C06A3059F41D861C862D898E8501
:101FF0009F8538E0239F800D911D112443C06D30D3
:1020000009F4AAC08F898823C9F03C898C859D85F5
:1020100046E0349F800D911D11244885598548174D
:10202000590764F41D861C863D898E859F8548E08E
:10203000349F800D911D11249F878E87EA88FB882D
:10204000088919894E855F856C857D85AD88CC882A
:10205000CE010E94B40D2C898C859D8536E0239F8E
:10206000800D911D11243EC06A3079F41D861C86B6
:102070002D89FC013896E4918E859F852E9F800DD9
:10208000911D11249F878E8767C06D3009F464C04D
:10209000FC0134963491631708F45EC03296E491E3
:1020A000E61708F459C0462F431B342FFC01329623
:1020B0008590949047E0349F800C911C1124F4018A
:1020C000329634913196E491332311F0E1110DC031
:1020D000F4013496E4912C898C859D85E29F800DD6
:1020E000911D11249D878C8737C0F401359644914A
:1020F0005F89552319F15C89E32FF0E0E40FF11DAE
:1021000047FDFA955E9FB0015F9F700D11244C85CD
:102110005D85460F571F688579856417750774F4C8
:102120001D861C863D89FC013896E4918E859F852D
:102130003E9F800D911D11249F878E87EA88FB8822
:10214000088919894E855F856C857D85AD88CC8829
:10215000CE010E94B40DBCCF81E090E0DF91CF9121
:102160001F910F91FF90EF90CF90AF909F908F9025
:1021700008956F927F928F929F92AF92BF92CF926B
:10218000DF92EF92FF920F931F93CF93DF93EC01B7
:102190004B015A0169013801E881F9810284F38514
:1021A000E02D0995E881F9810288F389E02D870106
:1021B0009601A501B401CE010995E881F981A50137
:1021C000460D571D415051090288F389E02D9601B3
:1021D000B401CE010995E881F9810088F189E02DEB
:1021E0009301A501B401CE010995E881F981C80CDC
:1021F000D91CB601615071090088F189E02D930165
:10220000A501CE010995E881F9810688F789E02DBD
:10221000CE01DF91CF911F910F91FF90EF90DF9052
:10222000CF90BF90AF909F908F907F906F900994C8
:10223000CF92DF92EF92FF920F931F93CF93DF9392
:1022400000D000D000D0CDB7DEB76C01DC01ED913D
:10225000FC916217730789F4041715072CF4942F67
:10226000852FA801092F182F041B150B98012F5F2C
:102270003F4F048CF58DE02D12C04017510709F532
:10228000261737072CF4962F872FB901292F382FBF
:10229000261B370B2F5F3F4F068CF78DE02D8701F4
:1022A000C601099526960FB6F894DEBF0FBECDBFC6
:1022B000DF91CF911F910F91FF90EF90DF90CF9022
:1022C00008950284F385E02D2D833E834B835C8348
:1022D00069837A830995D601ED91FC910488F5898B
:1022E000E02D2D813E814B815C8169817A81C6011F
:1022F0000995D601ED91FC910688F789E02DC6017C
:1023000026960FB6F894DEBF0FBECDBFDF91CF91FA
:102310001F910F91FF90EF90DF90CF900994EF9273
:10232000FF920F931F93DC01ED91FC9111971A9688
:102330000D911C911B9718962D913C91199700A017
:10234000F1A1E02D7B0140E050E060E070E00995F4
:102350001F910F91FF90EF9008954F925F926F92AF
:102360007F928F929F92AF92BF92CF92DF92EF9225
:10237000FF920F931F93CF93DF9300D0CDB7DEB7BB
:102380006C015A0139014801DC01ED91FC91028494
:10239000F385E02D69837A8309956981462E7A81D8
:1023A000572E640C751CD601ED91FC914614570410
:1023B0006CF40088F189E02D87019401A501B20138
:1023C000C6010995BFEF4B1A5B0AEDCF0688F78966
:1023D000E02DC6010F900F90DF91CF911F910F91CB
:1023E000FF90EF90DF90CF90BF90AF909F908F9035
:1023F0007F906F905F904F900994AF92BF92CF9271
:10240000DF92EF92FF920F931F93CF93DF9300D051
:1024100000D0CDB7DEB75C016901DC01ED91FC9124
:102420000284F385E02D4B835C8369837A8309956D
:10243000D501ED91FC9169817A819B012C0D3D1DA7
:10244000215031090488F589E02D78014B815C81A8
:102450008A01C5010995D501ED91FC910688F7899E
:10246000E02DC5010F900F900F900F90DF91CF914D
:102470001F910F91FF90EF90DF90CF90BF90AF90A2
:102480000994AF92BF92CF92DF92EF92FF920F9397
:102490001F93CF93DF9300D000D0CDB7DEB75C01A0
:1024A0006901DC01ED91FC910284F385E02D4B8301
:1024B0005C8369837A830995D501ED91FC914B8109
:1024C0005C81C40ED51EB1E0CB1AD1080488F58911
:1024D000E02D7801860169817A819B01C50109950A
:1024E000D501ED91FC910688F789E02DC5010F908B
:1024F0000F900F900F90DF91CF911F910F91FF9050
:10250000EF90DF90CF90BF90AF9009940895EF9235
:10251000FF920F931F93DC01ED91FC9100A0F1A1BC
:10252000E02D09951F910F91FF90EF9008950F9363
:102530001F93DC01ED91FC91068CF78DE02D099540
:102540001F910F9108950F931F93DC01ED91FC9162
:10255000048CF58DE02D09951F910F910895DC01F4
:10256000ED91FC910084F185E02D099408952F925E
:102570003F924F925F926F927F928F929F92AF9213
:10258000BF92CF92DF92EF92FF920F931F93CF9360
:10259000DF9300D01F92CDB7DEB74C017B836A83F7
:1025A0006A01590117019801241B350B37FF03C03D
:1025B000319521953109C5014A815B81841B950BB9
:1025C00097FF03C091958195910951E05983821736
:1025D000930714F019820BC09A2D8B2D5801092FE7
:1025E000182F9A818B81DB82CA82C92ED82E8A81CC
:1025F0009B81A816B9065CF49C2D8D2D6801092FCE
:10260000182F9A818B81BB82AA82A92EB82E250110
:10261000AA81BB814A1A5B0A38016C187D0877FED3
:1026200003C0719461947108720157FE03C0BFEF3B
:10263000EB1AFB0AF594E794C016D1061CF00FEFD5
:102640001FEF1FC001E010E01CC0D401ED91FC9110
:10265000B9810484F585E02D9101BB23C1F04A8145
:102660005B81B601C4010995E618F708F7FE04C0BE
:10267000C00ED11EE40CF51CEA81FB813196FB8370
:10268000EA834A815B81A416B506FCF604C0A60164
:102690006A817B81E7CF0F900F900F90DF91CF91F0
:1026A0001F910F91FF90EF90DF90CF90BF90AF9070
:1026B0009F908F907F906F905F904F903F902F9062
:1026C0000895089580E090E00895CF92DF92EF9210
:1026D000FF920F931F93CF93DF93EC016A017B016D
:1026E000452B462B472B31F4C12C52E1D52E5AE70E
:1026F000E52EF12C8FA987FD07C061E00E943715F8
:1027000061E08FA90E94EB1461E088AD0E9437154B
:1027100061E088AD0E94EB148DA9811152C090E058
:1027200000E012E12AE730E0C016D106E206F30627
:1027300040F436952795179507959F5F9630A1F73A
:1027400097E081E08927982F906A969599A38170E8
:102750008AA31BA21CA21DA21EA21FB7F8948091DF
:102760007B01811127C0EDEDFDE08491EFEBFDE0F1
:102770009491E82FF0E0EE0FFF1FE956F24FA5917C
:10278000B491EC91E92321F461E08AE00E94EB141A
:1027900061E08AE00E9437158CB580618CBD8CB5F4
:1027A00080648CBD61E08DE00E94371561E08BE0B4
:1027B0000E94371580917B018F5F80937B011FBF43
:1027C0004AC08130B9F461E08AA50E94371560E003
:1027D0008AA50E94EB1461E08CA50E94371560E089
:1027E0008CA50E94EB148BA587FD35C060E00E948C
:1027F000371531C000E010E0F801ED52F24FE491DE
:10280000F0E0EE0FFF1FE753F24F859194912F8D6B
:1028100038A12817390741F461E0802F0E9437154D
:1028200060E0802F0E94EB140F5F1F4F04311105F1
:1028300019F761E08EA50E94371561E08EA50E9410
:10284000EB148FA587FD07C061E00E94371561E09A
:102850008FA50E94EB148EA987FD21C061E00E9424
:10286000371561E08EA90E94EB1464E670E080E009
:1028700090E00E94731560E08EA90E94EB1464E65C
:1028800070E080E090E00E94731561E08EA90E94E4
:10289000EB1468EC70E080E090E00E9473158EA964
:1028A00087FF0DC020E040E050E061E0CE010E94D3
:1028B000180D66E970E080E090E00E94731508E66C
:1028C00015E0C8010196F80164916623B9F00E5F26
:1028D0001F4FFC01F490FF2DFF77EF2E2F2FA80143
:1028E000CE010E94180D0E0D111DF7FEEACF66E90C
:1028F00070E080E090E00E947315E3CF80EF90E0FD
:102900009987888780E491E09B878A87DF91CF91C0
:102910001F910F91FF90EF90DF90CF9008953FB7F8
:10292000F8948091320290913302A0913402B091D8
:10293000350226B5A89B05C02F3F19F00196A11DB1
:10294000B11D3FBFBA2FA92F982F8827820F911D45
:10295000A11DB11DBC01CD0142E0660F771F881F8C
:10296000991F4A95D1F70895CF92DF92EF92FF9287
:102970000F931F93CF93DF936C017A018B01C0E01B
:10298000D0E0CE15DF0589F0D8016D918D01D6011B
:10299000ED91FC910190F081E02DC6010995892B04
:1029A00011F47E0102C02196ECCFC701DF91CF91D7
:1029B0001F910F91FF90EF90DF90CF90089585EDDC
:1029C0008093BC008091BC0084FDFCCF10929D01DF
:1029D00008950E94771890E0FC01EF55F24F349172
:1029E000FC01EB54F24F2491FC01ED52F24FE491C3
:1029F000EE2309F43BC0332339F1333091F038F43E
:102A00003130A9F0323001F584B58F7D12C03730F6
:102A100091F03830A1F03430B9F4809180008F7D8E
:102A200003C0809180008F77809380000DC084B5B3
:102A30008F7784BD09C08091B0008F7703C08091EB
:102A4000B0008F7D8093B000F0E0EE0FFF1FE753E2
:102A5000F24FA591B4918FB7F894EC91611103C036
:102A600020952E2301C02E2B2C938FBF0895CF933A
:102A7000DF9390E0FC01EB54F24F2491FC01ED5206
:102A8000F24F8491882361F190E0880F991FFC0137
:102A9000E956F24FC591D491FC01E753F24FA5914D
:102AA000B491611109C09FB7F89488812095822361
:102AB0008883EC912E230BC0623061F49FB7F894A9
:102AC0003881822F809583238883EC912E2B2C9341
:102AD0009FBF06C08FB7F894E8812E2B28838FBF45
:102AE000DF91CF9108958F929F92AF92BF92CF9234
:102AF000DF92EF92FF926B017C010E948F144B01D9
:102B00005C01C114D104E104F104F1F00E948F14BE
:102B1000DC01CB0188199909AA09BB09883E9340B9
:102B2000A105B10570F321E0C21AD108E108F1084E
:102B300088EE880E83E0981EA11CB11CC114D1043C
:102B4000E104F10419F7DDCFFF90EF90DF90CF9013
:102B5000BF90AF909F908F9008951F920F920FB6E5
:102B60000F9211242F933F938F939F93AF93BF9313
:102B700080912E0290912F02A0913002B0913102EB
:102B800030912D0223E0230F2D3720F40196A11D53
:102B9000B11D05C026E8230F0296A11DB11D20938B
:102BA0002D0280932E0290932F02A0933002B093B7
:102BB00031028091320290913302A0913402B0919F
:102BC00035020196A11DB11D80933202909333020C
:102BD000A0933402B0933502BF91AF919F918F9132
:102BE0003F912F910F900FBE0F901F9018951F923D
:102BF0000F920FB60F9211242F933F934F935F9331
:102C00006F937F938F939F93AF93BF93EF93FF93B4
:102C10008091B900887F803609F49CC068F58832BD
:102C200009F45BC090F4803109F454C038F488236F
:102C300009F4F6C0883009F44DC0F6C0883109F4B3
:102C40004CC0803209F45DC0EFC0803409F468C024
:102C500048F4803309F455C0883309F0E5C0809307
:102C60000702D8C0803509F44FC0883509F45DC02B
:102C7000883409F0D9C0D6C0883909F4C7C0A8F48F
:102C8000883709F467C038F4883609F463C08037A0
:102C900009F460C0C9C0883809F4B8C0803909F4A3
:102CA0005FC0803809F0C0C05BC0803B09F486C0BB
:102CB00038F4803A09F466C0883A09F47FC0B4C099
:102CC000803C09F4A7C0883C09F4A4C0883B09F4FF
:102CD0008AC0AAC080912C0210C090912B028091D2
:102CE0002A02981770F5E0912B0281E08E0F8093F5
:102CF0002B02F0E0E65FFD4F80818093BB0085EC06
:102D000086C0809307028EC0E0912B0281E08E0F77
:102D100080932B028091BB00F0E0E65FFD4F808343
:102D200090912B0280912A026EC0E0912B0281E0EB
:102D30008E0F80932B028091BB00F0E0E65FFD4F89
:102D400080838091090281116DC081E08093080227
:102D500084EA61C083E080939D0110920602CFCF88
:102D600080910602803208F051C0E091060281E0B5
:102D70008E0F809306028091BB00F0E0EA51FE4F77
:102D80008083BDCF85EC8093BC0010929D01809123
:102D90000602803230F4E0910602F0E0EA51FE4F84
:102DA00010826091060270E0E091E401F091E5018B
:102DB00086EE91E009951092060236C084E0809379
:102DC0009D011092E30110929C01E091E101F091CC
:102DD000E201099580919C01811105C081E08093F9
:102DE0009C0110927C01E091E30181E08E0F8093C1
:102DF000E301F0E0E458FE4F80818093BB009091A6
:102E0000E30180919C01981708F479CF85E88093BD
:102E1000BC000AC085EC8093BC0010929D0104C0E8
:102E2000109207020E94DF14FF91EF91BF91AF91C2
:102E30009F918F917F916F915F914F913F912F91D2
:102E40000F900FBE0F901F9018950895E6E3F2E0E3
:102E50001382128288EE93E0A0E0B0E08483958331
:102E6000A683B7838CE091E091838083AEE9B1E0E3
:102E700013961C921E92129720EF30E015963C9309
:102E80002E93149780E491E017969C938E93169757
:102E900019963C932E9318971B969C938E931A9792
:102EA00056961C9256971D961C921E921C971F9622
:102EB0001C921E921E9781E055968C9355975496BE
:102EC0008C9354972FEF3FEF53963C932E9352974A
:102ED00051963C932E93509757968C9357975896AC
:102EE0001C9258975A961C921E925997D5961C92EE
:102EF000D5978FEFD6968C93D6978AE0D7968C93FA
:102F0000D79789E0D8968C93D897DA961C921E9220
:102F1000D997DC961C921E92DB971092DB011092DF
:102F2000DC011092DD011092DE011092DF0110929F
:102F3000E00182E492E090969C938E935F97ECED93
:102F4000FDE0E491F0E0EE0FFF1FE753F24F8591B3
:102F500094915E969C938E935D97EEEBFDE0849149
:102F6000D3968C93D397EDEDFDE0E491F0E0EE0F76
:102F7000FF1FE753F24F259134915C963C932E93BB
:102F80005B97EFEBFDE0E491D196EC93D197E09560
:102F9000D296EC93D297E82FE095D496EC93D49701
:102FA0008EE491E08D939C930895789484B582602B
:102FB00084BD84B5816084BD85B5826085BD85B5DD
:102FC000816085BD80916E00816080936E0010925B
:102FD00081008091810082608093810080918100D6
:102FE0008160809381008091800081608093800067
:102FF0008091B10084608093B1008091B0008160C5
:103000008093B00080917A00846080937A008091F0
:103010007A00826080937A0080917A008160809348
:103020007A0080917A00806880937A001092C100C3
:1030300040E050E0BA018EE991E00E946513809172
:10304000B7019091B801892B49F48091AC0190911E
:10305000AD0106969093AD018093AC018EE89DE0A2
:103060009093B8018093B70180E098EF9093B101FD
:103070008093B0019093AF018093AE0182E0809382
:10308000B2018093B301C0E06C2F8EE991E00E9401
:10309000E10FCF5FC637C1F7C0E0D0E02097F1F372
:1030A0000E940000FBCF0E945B18332312F48A1B9E
:1030B0009B0B0C946C18A29FB001B39FC001A39FFF
:1030C000700D811D1124911DB29F700D811D112461
:1030D000911D08950E945B18B7FF0895821B930B02
:1030E0000895EE0FFF1F0590F491E02D099481E003
:1030F00090E0F8940C947C1816E0C5EFD6E004C07C
:10310000FE010E9471182196C63FD107C9F7F894B5
:02311000FFCFEF
:10311200FFFFFFFFFFFFFFFF000000006A075607E7
:10312200621348074F074C07490700000000E10FF0
:10313200B4146213611343080C0CDA0B6F0BEA0A26
:103142002D0BB7121E0C9F0D1A084209C0093E0A28
:103152008F111811B910E914E91400000000E10FF1
:10316200B4146213611343080C0CDA0B6F0BEA0AF6
:103172002D0BB7121E0C910C940D4209C0093E0A88
:0A3182008F111811B9106513290C04
:00000001FF
