:100000000C945E060C9486060C9486060C94860668
:100010000C9486060C9486060C9486060C94860630
:100020000C9486060C9486060C9486060C94860620
:100030000C9486060C9486060C9486060C94860610
:100040000C949B160C9486060C9486060C948606DB
:100050000C9486060C9486060C9486060C948606F0
:100060000C94E5160C94860600000000003E5B4FE1
:100070005B3E3E6B4F6B3E1C3E7C3E1C183C7E3C08
:10008000181C577D571C1C5E7F5E1C00183C180016
:10009000FFE7C3E7FF0018241800FFE7DBE7FF30A6
:1000A000483A060E2629792926407F050507407F14
:1000B00005253F5A3CE73C5A7F3E1C1C08081C1C87
:1000C0003E7F14227F22145F5F005F5F06097F017D
:1000D0007F006689956A606060606094A2FFA29468
:1000E00008047E040810207E201008082A1C080836
:1000F0001C2A08081E101010100C1E0C1E0C303884
:100100003E3830060E3E0E06000000000000005F84
:1001100000000007000700147F147F14242A7F2AA0
:100120001223130864623649562050000807030062
:10013000001C2241000041221C002A1C7F1C2A08AE
:10014000083E080800807030000808080808000011
:1001500060600020100804023E5149453E00427F85
:10016000400072494949462141494D331814127FD4
:100170001027454545393C4A494931412111090774
:100180003649494936464949291E000014000000F5
:1001900040340000000814224114141414140041C7
:1001A00022140802015909063E415D594E7C121184
:1001B000127C7F494949363E414141227F414141BC
:1001C0003E7F494949417F090909013E4141517337
:1001D0007F0808087F00417F41002040413F017FA8
:1001E000081422417F404040407F021C027F7F0470
:1001F00008107F3E4141413E7F090909063E4151B9
:10020000215E7F09192946264949493203017F01A8
:10021000033F4040403F1F2040201F3F4038403FA9
:10022000631408146303047804036159494D4300BF
:100230007F4141410204081020004141417F0402F6
:10024000010204404040404000030708002054548D
:1002500078407F284444383844444428384444286B
:100260007F385454541800087E090218A4A49C78BE
:100270007F0804047800447D40002040403D007F1A
:100280001028440000417F40007C047804787C08FA
:100290000404783844444438FC18242418182424CE
:1002A00018FC7C08040408485454542404043F44B3
:1002B000243C4040207C1C2040201C3C4030403CE2
:1002C00044281028444C9090907C4464544C440042
:1002D00008364100000077000000413608000201A6
:1002E0000204023C2623263C1EA1A161123A404092
:1002F000207A38545455592155557941225454780F
:1003000042215554784020545579400C1E527212A7
:100310003955555559395454545939555454580030
:1003200000457C410002457D420001457C407D1234
:1003300011127DF0282528F07C5455450020545496
:100340007C547C0A097F4932494949323A44444441
:100350003A324A4848303A4141217A3A424020787C
:10036000009DA0A07D3D4242423D3D4040403D3C7D
:1003700024FF2424487E4943662B2FFC2F2BFF09A2
:1003800029F620C0887E0903205454794100004496
:100390007D413048484A32384040227A007A0A0A81
:1003A000727D0D19317D2629292F282629292926F4
:1003B00030484D4020380808080808080808382F39
:1003C00010C8ACBA2F102834FA00007B00000814C3
:1003D0002A142222142A14085500550055AA55AA99
:1003E00055AAFF55FF55FF000000FF00101010FF39
:1003F00000141414FF001010FF00FF1010F010F094
:10040000141414FC001414F700FF0000FF00FF1484
:1004100014F404FC141417101F10101F101F1414D0
:10042000141F00101010F0000000001F101010101A
:100430001F10101010F010000000FF10101010100E
:1004400010101010FF10000000FF140000FF00FF4C
:1004500000001F10170000FC04F4141417101714E8
:1004600014F404F40000FF00F7141414141414140A
:10047000F700F7141414171410101F101F1414147D
:10048000F4141010F010F000001F101F0000001FE7
:1004900014000000FC140000F010F01010FF10FF1A
:1004A000141414FF141010101F00000000F010FFAF
:1004B000FFFFFFFFF0F0F0F0F0FFFFFF0000000093
:1004C00000FFFF0F0F0F0F0F3844443844FC4A4A17
:1004D0004A347E02020606027E027E0263554941CC
:1004E000633844443C04407E201E2006027E020203
:1004F00099A5E7A5991C2A492A1C4C7201724C3017
:100500004A4D4D303048784830BC625A463D3E49ED
:100510004949007E0101017E2A2A2A2A2A44445F91
:10052000444440514A444040444A51400000FF0185
:1005300003E080FF000008086B6B08361236243693
:10054000060F090F060000181800000010100030F8
:1005500040FF0101001F01011E00191D1712003C80
:100560003C3C3C0000000000EF03038002CF03008E
:10057000C130ED0464031281E803850078CB0539AE
:100580002C003402F70120EA020000C00123C1015F
:1005900010C5023E28C701863601483701003A01DE
:1005A00055B1020018B603088227F20100260101A6
:1005B000E00F0F312B0C0E084EF1370710030E0918
:1005C00000E10F000E1403110731C148080F0C3170
:1005D000360F118029800000800000050001D8FF3F
:1005E000060D0701F599FF06050A03F5C0FF0B0D7F
:1005F00009FFF401000B0F09FFF459000E0D0F0164
:10060000F5A1000D0D0E00F5570002050503F537A5
:100610000005100601F51F00051006FFF50600088D
:10062000080901F5D8FF09090A00F897FF03060534
:10063000FFFE4DFF05020600FCFEFE03030400FF63
:10064000EAFE070C0600F5EFFE090D0900F5DDFED8
:10065000080D0900F5F5FE090D0900F5FEFE090D6E
:100660000900F503FF090C0900F514FF090D090045
:10067000F52DFF090D0901F537FF090C0901F53DBD
:10068000FF080D0900F54AFF090D0900F513FF05E4
:10069000090500F9EDFE050B0500F9F6FE090A0A49
:1006A00001F7CBFE09050A01FAD1FE090A0A01F792
:1006B000CEFE080D0901F524FF0D0D0F01F438FFE2
:1006C0000C0D0D00F563FF0C0D0C00F586FF0C0DF5
:1006D0000B01F5B7FF0E0D0D00F5E4FF0D0D0B003E
:1006E000F505000D0D0B00F538000C0D0D01F57929
:1006F000000F0D0E00F56B00080D0700F56E000AE7
:100700000E0900F5B0000D0D0C00F5BB000C0D0B33
:1007100000F51601110D1000F541010E0D0D00F54B
:100720006C010C0D0C01F586010C0D0B00F5D201CE
:100730000C100C01F5FA010C0D0C00F50B02090D63
:100740000900F51E020B0D0B02F539020C0D0D020E
:10075000F544020C0C0D02F57B02100C1102F5B1F0
:10076000020D0D0D00F5C4020B0D0B02F5FF020B7F
:100770000D0A00F5ED02080F06FFF5C302050C0790
:1007800002F5B102070F06FFF5960208070A01F508
:100790004E0209010900030A0204030602F50302DE
:1007A00009090900F90302080E0900F4E901080922
:1007B0000800F9FC010A0E0900F4EB010709070023
:1007C000F905020B1109FEF41802090C0900F91EC3
:1007D00002090E0A00F4FF01050D0501F5FE0109ED
:1007E0001006FFF50D020A0E0900F4E501050E05DD
:1007F00001F4FC010D090E00F9E70108090900F9EF
:10080000CD0108090900F9E6010A0C09FEF9F10118
:10081000090C0900F9CC0108080700F9B001060924
:100820000600F99301050C0501F6790108090A0192
:10083000F9530107080801F947010A080C01F944B6
:10084000010A0909FFF93E01090C08FFF9380108FE
:10085000090700F92C0108100600F4DD00010C0561
:1008600002F5D100081006FEF4910008020A01FC0E
:10087000047114491C31EE714A25460D2929CE9484
:10088000EE0556E6373312258451EAF5CA84A3CC27
:10089000630E61CC628286F58EE93C4F148DFC4E6E
:1008A00092C50C611C379BE7BABA324E21CB288D1A
:1008B000F2784FC908E13C31BE6232DA588D8A23A2
:1008C0001499C7E7F28C739C522009B128E13018C3
:1008D000464CE311C1CF7BD27BFEF9801FBFF7CB23
:1008E000257DFC7962582924A28B0C51F6DA9603F7
:1008F00032095302B1A5E8B4711091128121CA479F
:10090000F1E572C04A8A4691A28E537EC47F1F537E
:10091000045F8E5C4406729F0C30C472A38EB92DA6
:10092000E6F8C30FE3FCE2784A38C48C015E733CFE
:100930004F16E5314C530B4AD824128A93A4FFA5D5
:100940003F4C612511492C311291F3B290DCAC5E21
:100950005AC06257E3D1DE252D1206F3388A63B8F8
:10096000DA782E4F13C17238527308F272B5BBC8D1
:10097000A5E7391CE27BFFFFF81FFE592F39C8E7B6
:10098000124E56B7393C4793DC5333194B954947C0
:100990009FC37F7A3CC4E3A9F53252318463D9EF17
:1009A00013DE36A4EFE3088245851C470793F85908
:1009B0002DCE29FFD39E444329FA56E2320C291149
:1009C0002C7B8BF63BD4A95A604B044006188C56FE
:1009D000FE27FF39FB125110892009524514C2D459
:1009E000C7AD1FFF19F0D49A308E19E8052B1449B2
:1009F000D31E9FFF9CF86A4D18470CF40294881888
:100A0000C2F98EFD2A569890C118FD189218231528
:100A1000BDC8FEFE94B94622C440C459F93E02291D
:100A2000452063314FF39910A480C50630BF2310D1
:100A3000928028C04A6452CA3FBE31AA33494688D0
:100A4000F13C3343030AA289263728FD198440A2CA
:100A5000400C46891DC7D1F2F8C294149A426072C4
:100A600038C232234149470292A332A527C9F398DD
:100A7000E85A96504934CC814592624B2FC8EE52C9
:100A8000A645301862288464312A57B89FF939EC9A
:100A9000440A665792FC60280C617E3729D322985D
:100AA0000C116412458952B5C4BC9525E9FA7FE45E
:100AB000E3B491029995ECA0314A4831899CC7F979
:100AC0008C0CC64627252414D7F57FFAD2935AC337
:100AD0000A08A208848C72FCFD29D6145844C07000
:100AE00004711939F7F97E52A0B1C4702532C0A142
:100AF0008FE7F7E6635246164C465C58238950321E
:100B000060253FDF39D519A23C67002381870E613C
:100B10008633697F3FCCA88A9C94C23848280394C6
:100B20009FFD1F56948C6546184A88A253159470F1
:100B3000E63CF2D103120454049B712512248A511D
:100B4000F4C458094414913470A4B119512AE3FF34
:100B5000F9AA9DCEE926988C64272DE45F164B03F5
:100B6000D4EC41AA8D6F8FCE94D99092D9E07D229A
:100B700022789F30548B51488CBD47AD99259D4FAD
:100B8000144B3C792C3580472958088C012C0A518C
:100B900074791BF692159F63F4CB5F847FC23E602D
:100BA000C08E32618235268F1A7879FA60D094C966
:100BB000E07879411A0096025A687D32A0FCA5C9F6
:100BC00071649525834B27D91250A895F79D5E69CE
:100BD000C7115692C300623A8BBCDC70894C4651F7
:100BE000451F4BB51A2A35BA47BCA7232448B1166E
:100BF0000D3B19E22959DCFE8698A45822DCA78512
:100C000014A5ED4E35444189F7C66B8C464BE63151
:100C1000ACC708D052DE9E0A86B44E5197AE453717
:100C200026A45EA786B169A38A116313CF33C8CB0C
:100C300080128DA538E9E72568981C8925A365A74A
:100C4000EBE29A52389AAB6A344DD4852218BAA096
:100C5000A82AC38D024C0351F04B01D5E3FF00706D
:100C600008D70520007E00160000000024002700A1
:100C70002A00000000080002010000030407000031
:100C80000000000000000102040810204080010262
:100C900004081020010204081020000000002500B4
:100CA00028002B00040404040404040402020202C9
:100CB00002020303030303031418131811241FBEB5
:100CC000CFEFD8E0DEBFCDBF11E0A0E0B1E0E6ECB1
:100CD000F5E302C005900D92A038B107D9F722E0E4
:100CE000A0E8B1E001C01D92A435B207E1F716E01B
:100CF000CDE5D6E004C02197FE010E949719CC35BE
:100D0000D107C9F70E94C5180C94D61A0C9400009C
:100D10000895FC016370668B8481958126813781FB
:100D2000613039F0633029F09187808733872287DB
:100D30000895318720879387828708956F927F92E5
:100D40008F929F92AF92BF92CF92DF92EF92FF92DB
:100D50000F931F93CF93DF93EC014B015A0169016D
:100D60003801E881F9810284F385E02D0995E88155
:100D7000F9810288F389E02D87019601A501B4016C
:100D8000CE010995E881F981A501460D571D415015
:100D900051090288F389E02D9601B401CE0109952D
:100DA000E881F9810088F189E02D9301A501B40162
:100DB000CE010995E881F981C80CD91CB6016150B2
:100DC00071090088F189E02D9301A501CE010995F3
:100DD000E881F9810688F789E02DCE01DF91CF9176
:100DE0001F910F91FF90EF90DF90CF90BF90AF9049
:100DF0009F908F907F906F900994CF92DF92EF92A7
:100E0000FF920F931F93CF93DF9300D000D000D0B9
:100E1000CDB7DEB76C01DC01ED91FC916217730771
:100E200089F4041715072CF4942F852FA801092F96
:100E3000182F041B150B98012F5F3F4F048CF58D65
:100E4000E02D12C04017510709F5261737072CF47B
:100E5000962F872FB901292F382F261B370B2F5F8D
:100E60003F4F068CF78DE02D8701C6010995269628
:100E70000FB6F894DEBF0FBECDBFDF91CF911F91AB
:100E80000F91FF90EF90DF90CF9008950284F3854B
:100E9000E02D2D833E834B835C8369837A830995A0
:100EA000D601ED91FC910488F589E02D2D813E81DC
:100EB0004B815C8169817A81C6010995D601ED91EA
:100EC000FC910688F789E02DC60126960FB6F894A6
:100ED000DEBF0FBECDBFDF91CF911F910F91FF906D
:100EE000EF90DF90CF900994EF92FF920F931F93B2
:100EF000DC01ED91FC9111971A960D911C911B97B5
:100F000018962D913C91199700A0F1A1E02D7B013D
:100F100040E050E060E070E009951F910F91FF9074
:100F2000EF9008954F925F926F927F928F929F926F
:100F3000AF92BF92CF92DF92EF92FF920F931F93E7
:100F4000CF93DF9300D0CDB7DEB76C015A013901E2
:100F50004801DC01ED91FC910284F385E02D698369
:100F60007A8309956981462E7A81572E640C751C07
:100F7000D601ED91FC91461457046CF40088F18978
:100F8000E02D87019401A501B201C6010995BFEFCB
:100F90004B1A5B0AEDCF0688F789E02DC6010F904A
:100FA0000F90DF91CF911F910F91FF90EF90DF9005
:100FB000CF90BF90AF909F908F907F906F905F90F9
:100FC0004F900994AF92BF92CF92DF92EF92FF922F
:100FD0000F931F93CF93DF9300D000D0CDB7DEB730
:100FE0005C016901DC01ED91FC910284F385E02D47
:100FF0004B835C8369837A830995D501ED91FC91DC
:1010000069817A819B012C0D3D1D21503109048895
:10101000F589E02D78014B815C818A01C501099534
:10102000D501ED91FC910688F789E02DC5010F905F
:101030000F900F900F90DF91CF911F910F91FF9024
:10104000EF90DF90CF90BF90AF900994AF92BF9296
:10105000CF92DF92EF92FF920F931F93CF93DF9384
:1010600000D000D0CDB7DEB75C016901DC01ED91A5
:10107000FC910284F385E02D4B835C8369837A8342
:101080000995D501ED91FC914B815C81C40ED51E73
:10109000B1E0CB1AD1080488F589E02D78018601EA
:1010A00069817A819B01C5010995D501ED91FC917A
:1010B0000688F789E02DC5010F900F900F900F90D3
:1010C000DF91CF911F910F91FF90EF90DF90CF9024
:1010D000BF90AF9009940895EF92FF920F931F93E2
:1010E000DC01ED91FC9100A0F1A1E02D09951F918B
:1010F0000F91FF90EF9008950F931F93DC01ED91F6
:10110000FC91068CF78DE02D09951F910F910895A4
:101110000F931F93DC01ED91FC91048CF58DE02D74
:1011200009951F910F910895DC01ED91FC910084C8
:10113000F185E02D099408952F923F924F925F928E
:101140006F927F928F929F92AF92BF92CF92DF92D7
:10115000EF92FF920F931F93CF93DF9300D01F92D4
:10116000CDB7DEB74C017B836A836A015901170151
:101170009801241B350B37FF03C0319521953109A8
:10118000C5014A815B81841B950B97FF03C0919534
:101190008195910951E059838217930714F01982C0
:1011A0000BC09A2D8B2D5801092F182F9A818B81F6
:1011B000DB82CA82C92ED82E8A819B81A816B906E5
:1011C0005CF49C2D8D2D6801092F182F9A818B813D
:1011D000BB82AA82A92EB82E2501AA81BB814A1AF8
:1011E0005B0A38016C187D0877FE03C07194619426
:1011F0007108720157FE03C0BFEFEB1AFB0AF594AA
:10120000E794C016D1061CF00FEF1FEF1FC001E0DE
:1012100010E01CC0D401ED91FC91B9810484F585E6
:10122000E02D9101BB23C1F04A815B81B601C4016D
:101230000995E618F708F7FE04C0C00ED11EE40CAD
:10124000F51CEA81FB813196FB83EA834A815B814D
:10125000A416B506FCF604C0A6016A817B81E7CF1F
:101260000F900F900F90DF91CF911F910F91FF90F2
:10127000EF90DF90CF90BF90AF909F908F907F9036
:101280006F905F904F903F902F900895089580E069
:1012900090E00895611102C060E201C061E220E0C7
:1012A00040E050E00C940B150F931F93CF93DF9306
:1012B0001F92CDB7DEB78C016370DC0156966C933C
:1012C0005697623059F06330C9F0613029F088E4F4
:1012D000898380EF90E007C088E211C088E88983A5
:1012E00080EF90E0D80119969C938E93189780E434
:1012F00091E01B969C938E931A970BC088EE89837E
:1013000080E491E0F8019187808780EF90E09387F7
:101310008287C8010E94E514D801DB968C91DB9787
:1013200087FD09C05F96ED91FC9190979081D696CC
:101330008C9189238083D8019196ED91FC919297AD
:101340009081D8968C918923808366E3C8010E949E
:101350001114D8019196ED91FC9192979081D796B6
:101360008C91D797892B8083D9968C91823029F0E4
:101370006981C8010E94111409C0F80184A9882359
:10138000B9F369817A81C8010E944913D801DB96BB
:101390008C91DB9787FD09C05F96ED91FC9190974A
:1013A0009081D5968C91892B8083F80181AD811134
:1013B00002C00E94FF140F90DF91CF911F910F91F7
:1013C0000895CF92DF92EF92FF920F931F93CF93E6
:1013D000DF93EC016A017B01452B462B472B31F44F
:1013E000C12C52E1D52E5AE7E52EF12C8BAD87FDAD
:1013F00007C061E00E94251661E08BAD0E94D915FF
:1014000061E08CAD0E94251661E08CAD0E94D9157B
:1014100089AD811152C090E000E012E12AE730E08E
:10142000C016D106E206F30640F4369527951795C7
:1014300007959F5F9630A1F797E081E08927982F65
:10144000906A96959DA381708EA31FA218A619A6D7
:101450001AA61FB7F89480918201811127C0EEEA85
:10146000FCE08491E0E9FCE09491E82FF0E0EE0FDD
:10147000FF1FE859F34FA591B491EC91E92321F4B2
:1014800061E08AE00E94D91561E08AE00E94251699
:101490008CB580618CBD8CB580648CBD61E08DE0C5
:1014A0000E94251661E08BE00E9425168091820142
:1014B0008F5F809382011FBF4AC08130B9F461E021
:1014C0008EA50E94251660E08EA50E94D91561E0C8
:1014D00088A90E94251660E088A90E94D9158FA5C9
:1014E00087FD35C060E00E94251631C000E010E0A5
:1014F000F801EC55F34FE491F0E0EE0FFF1FE656D4
:10150000F34F859194912BA13CA12817390741F401
:1015100061E0802F0E94251660E0802F0E94D9157F
:101520000F5F1F4F0431110519F761E08AA90E946E
:10153000251661E08AA90E94D9158BA987FD07C0ED
:1015400061E00E94251661E08BA90E94D9158AAD41
:1015500087FD21C061E00E94251661E08AAD0E94EE
:10156000D91564E670E080E090E00E94611660E0CA
:101570008AAD0E94D91564E670E080E090E00E9498
:10158000611661E08AAD0E94D91568EC70E080E0D8
:1015900090E00E9461168AAD87FF0DC020E040E018
:1015A00050E061E0CE010E940B1566E970E080E03A
:1015B00090E00E94611608E615E0C8010196F80166
:1015C00064916623B9F00E5F1F4FFC01F490FF2D6C
:1015D000FF77EF2E2F2FA801CE010E940B150E0DC5
:1015E000111DF7FEEACF66E970E080E090E00E940E
:1015F0006116E3CF80EF90E09987888780E491E0DF
:101600009B878A87DF91CF911F910F91FF90EF9079
:10161000DF90CF9008952F923F924F925F926F92FA
:101620007F928F929F92AF92BF92CF92DF92EF9272
:10163000FF920F931F93CF93DF93CDB7DEB7A5979C
:101640000FB6F894DEBF0FBECDBF2C011B015C8727
:101650004B871C8B0B8B4701CD86AE86DC015996E0
:10166000AD90BC905A97A114B10409F0FEC0189631
:101670008D919C911997681779070CF027C31A96DA
:101680008D919C911B97481759070CF01FC3AC2CE8
:10169000B12CFB0136E0C39EE00DF11D1124FA8B45
:1016A000E98B1E161F060CF011C37E85672F70E0B4
:1016B0007E8B6D8BF3E0660F771FFA95E1F77A8FDB
:1016C000698F8B859C85860F971F181619060CF05D
:1016D000FDC258968C91811103C0203B08F02F5F0A
:1016E000D201ED91FC910284F385E02DC2012DA37E
:1016F00009952DA1B5E02B9F90011124FD85EF2FB9
:10170000F0E0FE8FED8FA1014B5F5F4F5C8F4B8F41
:101710003A8629863101B9016219730978A36F8F5E
:101720009E85892F90E09AA389A3AB85BC851896E6
:10173000BCA3ABA3EF8DF8A1E60DF71DE859FF4F51
:10174000B491BF8BEB85FC85F88BEF876F01FF8928
:10175000F0FF15C0D201ED91FC91BD85B13049F487
:101760002E85213031F40484F585E02D2B893C89C8
:1017700018C00684F785E02DEB88FC881BC04B89D8
:101780005C8984169506F9F0D201ED91FC91BD8536
:10179000B13061F42E85213049F40484F585E02DC3
:1017A0009401A601B301C20109950DC00684F78515
:1017B000E02D74010D891E8995014F855889698531
:1017C0007A85C20109953F8936953F8B4FEFC41A40
:1017D000D40A6F85788989A19AA1680F791F788BBF
:1017E0006F87ABA1BCA1CA16DB0609F0B0CFBFEF73
:1017F0006B1A7B0AE985FA852D8D3E8DE20FF31F6A
:10180000FA87E9874B8D5C8D6416750609F092CFD7
:101810006B897C898616970609F450C2D201ED9136
:10182000FC91BD85B13089F42E85213071F4B10170
:101830006B5F7F4F0088F189E02D840128E030E064
:101840004B855C85C201099539C269897A896A1913
:101850007B090684F785E02D7401098D1A8D9501A9
:101860004B855C85C201099529C2F50145915491CA
:10187000588B4F87FA016490F5013696A591B49183
:10188000F501349645915491922E941AFC01638D82
:10189000748D858D968DF2E0AF0EB11CF50105912A
:1018A000149127E0929E000D111D1124F801C5909E
:1018B000D4900D2C000CEE08FF082091A6012223E5
:1018C00009F44EC0992009F44EC0E3E0660F771F7B
:1018D000881F991FEA95D1F79D012F5F3F4F241B69
:1018E000350B40E050E00E945719892D90E0829F0F
:1018F000B001839F700D929F700D1124CB01072EB4
:10190000000CAA0BBB0BC80ED91EEA1EFB1EAFEFC4
:10191000A90DF50185919491FC01B7E0AB9FE00D15
:10192000F11D1124859094908114E0E89E0681F0C9
:10193000C401990CAA0BBB0BFB01E21BF30B4F017B
:10194000FF0FAA08BB08880E991EAA1EBB1E03C063
:10195000812C912C5401C818D908EA08FB0806C04C
:101960004601570103C0812C912C5401F801329695
:1019700024912987319634913B8F32967490319619
:1019800004914D85423018F45E85523068F0672D21
:10199000072C000C770B7E8B6D8B802F002E000C9C
:1019A000990B988F8F8B04C0188E1F8A1E8A1D8AF0
:1019B000D201ED91FC910284F385E02DC2010995DD
:1019C000282D27708091A601882339F033E0B59443
:1019D000A794979487943A95D1F76E8280E890E027
:1019E00002C0959587952A95E2F78B83C4010196ED
:1019F000EF85F8898E0F9F1F9A8389831C821D8231
:101A0000D886CF82CE0101960E9429138091A6012B
:101A1000882309F456C0E0908001F0908101E11420
:101A2000F10499F191E08985877009F490E0498586
:101A3000469546954695192F140FD70115968C910A
:101A400015978117C0F412968D919C91139700976A
:101A500011F00E94321AC12ED12CC6010E949D198C
:101A6000F70193838283A60160E070E00E94CF1AA1
:101A7000D70115961C93412F50E060E070E0F7010C
:101A8000828193810E94CF1A1CC086E090E00E9460
:101A90009D197C01F985CF2ED12CC6010E949D197C
:101AA000D70113969C938E931297A60160E070E085
:101AB0000E94CF1A2985F7012583F0928101E092D7
:101AC000800180E0D12CC12C5E85452F50E05A8BDF
:101AD000498B7D85672F70E07A8F698FAB85BC85D8
:101AE000A00FB11D07FDBA95BAA3A9A3F101E70D97
:101AF000F11D77FCFA95FCA3EBA36B8DC61608F0DD
:101B0000DDC09091A601992351F0E0918001F09100
:101B1000810190E8948322813381318320832C2DAD
:101B200030E06F89788D620F731FA989BA896A9F27
:101B3000A0016B9F500D7A9F500D1124EB85FC8501
:101B4000E40FF51FFE8FED8F712C49A15AA1420FB2
:101B5000531F58A34F8F5985751608F0ADC090914B
:101B6000A601992309F45FC08E8181110DC0E9811E
:101B7000FA81E4918B81E82311E009F410E0CE01B1
:101B800001960E94111325C08D818823B1F0E9814F
:101B9000FA81E4918B81E82311E009F410E0CE0191
:101BA00001960E9411138D8181508D83811111C086
:101BB000CE0101960E9429130CC08C81882341F02C
:101BC00081508C83811104C0CE0101960E9429139B
:101BD00010E0612EE0918001F09181018481A0816B
:101BE000B1819C91292F282311F051E01527892BD1
:101BF0008C93111106C0A081B1819C9184818927A9
:101C00008C938481823028F090E095958795848329
:101C100007C060E86483808191810196918380830D
:101C2000D12ED19411C066246394680E877061F43C
:101C3000D501C4010196A11DB11DEF85F889E80DFC
:101C4000F91DD4904C015D01D7FE32C0D201ED9157
:101C5000FC91BD85B13089F42E85213071F4048466
:101C6000F585E02D2B893C894F8D58A16BA17CA176
:101C7000670D711DC20109951BC08D899E89870D55
:101C8000911D498D5A8D849FB001859F700D949F41
:101C9000700D1124620D731D0684F785E02DEB880D
:101CA000FC8809891A899A014D8D5E8DC2010995BA
:101CB000DD0C7394862D4FCFC3941FCFD201ED91CD
:101CC000FC910688F789E02DC2010995A5960FB60B
:101CD000F894DEBF0FBECDBFDF91CF911F910F9162
:101CE000FF90EF90DF90CF90BF90AF909F908F903C
:101CF0007F906F905F904F903F902F9008958F92BC
:101D00009F92AF92CF92EF92FF920F931F93CF9338
:101D1000DF93EC01262F898D9A8D009709F042C040
:101D20006A3059F41D861C862D898E859F8538E082
:101D3000239F800D911D112443C06D3009F4AAC06A
:101D40008F898823C9F03C898C859D8546E0349F26
:101D5000800D911D1124488559854817590764F451
:101D60001D861C863D898E859F8548E0349F800DA9
:101D7000911D11249F878E87EA88FB88088919891D
:101D80004E855F856C857D85AD88CC88CE010E94AF
:101D90000B0B2C898C859D8536E0239F800D911D32
:101DA00011243EC06A3079F41D861C862D89FC0101
:101DB0003896E4918E859F852E9F800D911D11246C
:101DC0009F878E8767C06D3009F464C0FC0134962C
:101DD0003491631708F45EC03296E491E61708F474
:101DE00059C0462F431B342FFC01329685909490A6
:101DF00047E0349F800C911C1124F40132963491F9
:101E00003196E491332311F0E1110DC0F4013496C1
:101E1000E4912C898C859D85E29F800D911D112474
:101E20009D878C8737C0F401359644915F8955238F
:101E300019F15C89E32FF0E0E40FF11D47FDFA95FD
:101E40005E9FB0015F9F700D11244C855D85460F2C
:101E5000571F688579856417750774F41D861C867D
:101E60003D89FC013896E4918E859F853E9F800DCB
:101E7000911D11249F878E87EA88FB88088919891C
:101E80004E855F856C857D85AD88CC88CE010E94AE
:101E90000B0BBCCF81E090E0DF91CF911F910F91B0
:101EA000FF90EF90CF90AF909F908F9008954091CA
:101EB000A401262F30E0240F311D21323105DCF43E
:101EC0002091A5012430C9F4FC0180E090E0861740
:101ED00058F43091A4012191DC01AC57BE4FA30FFF
:101EE000B11D2C930196F3CF8091A401680F6093EC
:101EF000A40180E0089581E0089582E008950895A6
:101F00008FEF9FEF08958FEF9FEF089580918301EA
:101F100090E09195819591090895CF93DF9300D03A
:101F2000CDB7DEB7CB01642F49835A830E94570F88
:101F30004981842F5A81952F0F900F90DF91CF9177
:101F40000895CF93DF931F92CDB7DEB7698361E029
:101F5000CE0101960E94570F81E090E00F90DF9133
:101F6000CF910895FC01A1A5B2A59C9186A58923D6
:101F70008C93A1A5B2A59C9185A5892B8C930895DE
:101F80008F929F92AF92BF92CF92DF92EF92FF9289
:101F90000F931F93CF93DF93EC0169014801BE2C8F
:101FA000AF2CE881F98102A4F3A5E02D09959401F5
:101FB000D6010E947919611571058105910509F411
:101FC00081C029AD21110FC06150710981099109AA
:101FD00008F478C0AEBC0DB407FEFDCFBEBC0DB496
:101FE00007FEFDCFF1CF213009F03FC061507109EC
:101FF0008109910908F466C03A2D28E0EDA1FEA1FF
:10200000508137FF03C049A5452B02C04AA545238F
:102010004083EFA1F8A550814BA5452B4083EFA14C
:10202000F8A550814CA545234083330F215031F74B
:102030003B2D28E0EDA1FEA1508137FF03C049A54B
:10204000452B02C04AA545234083EFA1F8A5508146
:102050004BA5452B4083EFA1F8A550814CA5452306
:102060004083330F215031F7C1CFFE1017C0EBA1D1
:10207000FCA1F0826B017C01CC0CDD1CEE1CFF1C72
:10208000C114D104E104F104E9F0CE010E94B20FC1
:1020900081E0C81AD108E108F108F2CF6B017C0198
:1020A000EBA1FCA1A082CE010E94B20FEBA1FCA18A
:1020B000B082CE010E94B20F21E0C21AD108E1081D
:1020C000F10871F7DF91CF911F910F91FF90EF9081
:1020D000DF90CF90BF90AF909F908F900895AF9278
:1020E000BF92CF92DF92EF92FF920F931F93CF9305
:1020F000DF9300D000D0CDB7DEB76C01590177FD7A
:102100005DC0DC0118968D919C911997681779072D
:102110000CF054C02115310509F450C037FF07C039
:10212000C9010196480F591FB194A194B108F60155
:1021300082859385481759070CF040C0FA01EA0DD3
:10214000FB1D9F012150310937FD38C057FF03C0E7
:102150005F0140E050E0281739071CF05C01A41A29
:10216000B50AD601ED91FC910284F385E02DC601FC
:102170004B835C8369837A8309957801850121E02B
:1021800030E04B815C8169817A81C6010E94C00F79
:10219000D601ED91FC910688F789E02DC6010F90DC
:1021A0000F900F900F90DF91CF911F910F91FF90A3
:1021B000EF90DF90CF90BF90AF9009940F900F9069
:1021C0000F900F90DF91CF911F910F91FF90EF90A3
:1021D000DF90CF90BF90AF900895CF92DF92EF92B3
:1021E000FF920F931F93CF93DF9300D000D000D0C6
:1021F000CDB7DEB76C0157FD5FC0DC011A968D913B
:102200009C911B97481759070CF056C021153105B2
:1022100009F452C037FF07C0C9010196680F791F42
:10222000319521953109F6018085918568177907E7
:102230000CF042C0DB01A20FB31FFD013197F7FD87
:102240003BC077FF03C09D0160E070E0E817F9072D
:102250001CF09C01261B370BD601ED91FC910284EA
:10226000F385E02DC6012D833E834B835C83698318
:102270007A830995780101E010E02D813E814B8140
:102280005C8169817A81C6010E94C00FD601ED91FF
:10229000FC910688F789E02DC60126960FB6F894C2
:1022A000DEBF0FBECDBFDF91CF911F910F91FF9089
:1022B000EF90DF90CF90099426960FB6F894DEBF8A
:1022C0000FBECDBFDF91CF911F910F91FF90EF9087
:1022D000DF90CF9008956F927F928F929F92AF92EE
:1022E000BF92CF92DF92EF92FF920F931F93CF9303
:1022F000DF9300D000D000D0CDB7DEB73C0147015E
:102300002115310509F47EC00115110509F47AC0C3
:1023100037FF07C0C9010196680F791F31952195D4
:102320003109D3011896AD90BC9019976A157B05B9
:102330000CF068C017FF07C0C8010196480F591F6D
:10234000119501951109F301828593854817590765
:102350000CF058C06B01C20ED31ED6011197B7FD09
:1023600051C07A01E00EF11EF7013197F7FD4AC026
:1023700077FF03C0960160E070E057FF03C087015C
:1023800040E050E0AA15BB051CF09501261B370B59
:10239000E817F9071CF08C01041B150BD301ED9114
:1023A000FC910284F385E02DC3012D833E834B8392
:1023B0005C8369837A83099574012D813E814B8109
:1023C0005C8169817A81C3010E94C00FD301ED91C4
:1023D000FC910688F789E02DC30126960FB6F89484
:1023E000DEBF0FBECDBFDF91CF911F910F91FF9048
:1023F000EF90DF90CF90BF90AF909F908F907F90A5
:102400006F90099426960FB6F894DEBF0FBECDBF2D
:10241000DF91CF911F910F91FF90EF90DF90CF90C0
:10242000BF90AF909F908F907F906F900895EF92A4
:10243000FF920F931F93CF93DF9377FD34C0DC019E
:102440001896ED91FC9119976E177F0764F5211589
:10245000310549F137FF07C0F90131964E0F5F1F73
:10246000319521953109DC011A96ED91FC911B976C
:102470004E175F07C4F4EA01C20FD31FDE011197A4
:10248000B7FD11C057FF03C09E0140E050E0AE17FA
:10249000BF071CF09F01241B350B7801890121E047
:1024A00030E00E94C00FDF91CF911F910F91FF90FC
:1024B000EF900895EF92FF920F931F93CF93DF93C6
:1024C00057FD33C0DC011A96ED91FC911B974E1716
:1024D0005F075CF52115310541F137FF07C0F901B0
:1024E00031966E0F7F1F319521953109DC011896C9
:1024F000ED91FC9119976E177F07BCF4EB01C20FA9
:10250000D31FDE011197B7FD10C077FF03C09E01F6
:1025100060E070E0AE17BF071CF09F01261B370B71
:10252000780101E010E00E94C00FDF91CF911F9170
:102530000F91FF90EF9008958F929F92AF92BF926C
:10254000CF92DF92EF92FF920F931F93CF93DF937F
:1025500047012115310509F44DC00115110509F494
:1025600049C037FF07C0F90131966E0F7F1F3195C3
:1025700021953109DC011896AD90BC9019976A1528
:102580007B05C4F517FF07C0F80131964E0F5F1F9A
:10259000119501951109DC011A96ED91FC911B979B
:1025A0004E175F073CF56B01C20ED31EE601219763
:1025B000D7FD20C07A01E00EF11ED7011197B7FDBB
:1025C00019C077FF03C0960160E070E057FF03C0B9
:1025D000870140E050E0CA15DB051CF09501261B81
:1025E000370BAE17BF071CF08F01041B150B7401CE
:1025F0000E94C00FDF91CF911F910F91FF90EF903C
:10260000DF90CF90BF90AF909F908F90089585ED11
:102610008093BC008091BC0084FDFCCF1092A5018A
:102620000895FC0186819781009719F0019797839F
:1026300086838281813041F480E882838081918128
:10264000019691838083089590E095958795828384
:102650000895DC0116968D919C911797892BC1F0F6
:1026600015968C911597882399F0ED91FC9111970F
:10267000E49112969C911297E92321F014968C9381
:10268000149703C013968C931397CD010C941113D8
:1026900008950F931F93CF93DF93EC018B0189ADC6
:1026A000811109C01EBD0DB407FEFDCF0EBD0DB4D6
:1026B00007FEFDCF2FC08130E9F480E1EDA1FEA13E
:1026C000208117FF03C099A5922B02C09AA59223DF
:1026D0009083EFA1F8A520819BA5922B9083EFA179
:1026E000F8A520819CA592239083000F111F815093
:1026F00029F710C0EBA1FCA11083CE010E94B20FFC
:10270000EBA1FCA10083CE01DF91CF911F910F912E
:102710000C94B20FDF91CF911F910F910895AF925A
:10272000BF92CF92DF92EF92FF920F931F93CF93BE
:10273000DF93EC0177FD38C08885998568177907A4
:102740009CF557FD31C08A859B854817590764F56C
:1027500069015A017B01E881F9810284F385E02D4A
:10276000CE010995E881F98102A4F3A5E02D01E0ED
:1027700010E021E030E0A501B701CE010995B601D6
:10278000CE010E944913E881F9810688F789E02D7E
:10279000CE01DF91CF911F910F91FF90EF90DF90CD
:1027A000CF90BF90AF900994DF91CF911F910F917F
:1027B000FF90EF90DF90CF90BF90AF900895EF9291
:1027C000FF920F931F93CF93DF93EC0177FD22C00D
:1027D0008885998568177907ECF457FD1BC08A85B1
:1027E0009B8548175907B4F47901E881F98102A45F
:1027F000F3A5E02D01E010E021E030E0CE010995E5
:10280000B701CE01DF91CF911F910F91FF90EF9013
:102810000C944913DF91CF911F910F91FF90EF908E
:102820000895FC0181AD811105C06EBD0DB407FE98
:10283000FDCF08958130E1F488E0A5A1B6A12C91E7
:1028400067FF03C091A5922B02C092A592239C938F
:10285000A7A1B0A52C9193A5922B9C93660FA7A13D
:10286000B0A52C9194A592239C93815031F70895A3
:10287000A3A1B4A16C93CF010C94B20FCF93DF93BB
:10288000EC01E9A1FAA1908188AD89238083CE0172
:102890000E941114E9A1FAA190818FA9892B80834C
:1028A000DF91CF9108950F931F93CF93DF931F92E2
:1028B000CDB7DEB78C01DC01ED91FC910284F3858C
:1028C000E02D698309956981F801662319F0EF5BB2
:1028D000FF4F02C0EE5BFF4F6081C8010E943E14B3
:1028E000D801ED91FC910688F789E02DC8010F9081
:1028F000DF91CF911F910F910994AF92BF92CF9228
:10290000DF92EF92FF920F931F93CF93DF93EC012F
:102910006B015A01215031097901E60EF71E015071
:102920001109040F151F8091060190910701681786
:10293000790739F48091040190910501E816F906B0
:10294000A1F06AE2CE010E943E14B601CE010E94BF
:102950004913B701CE010E944913D0920701C092DA
:102960000601F0920501E09204018091020190912C
:102970000301A816B90639F4809100019091010174
:1029800008171907A1F06BE2CE010E943E14B501B1
:10299000CE010E944913B801CE010E944913B092A2
:1029A0000301A092020110930101009300016CE267
:1029B000CE01DF91CF911F910F91FF90EF90DF90AB
:1029C000CF90BF90AF900C943E14FC0181AD81116B
:1029D00004C095A186A19CBD8DBD0895CF93DF93C2
:1029E000EC010E94E5148BAD87FD06C0EF8DF8A1C8
:1029F00090818EA989238083DF91CF9108950895D6
:102A0000FC0183AD87FD06C0A78DB0A19C9185A96F
:102A1000892B8C9308958F929F92AF92BF92CF9201
:102A2000DF92EF92FF920F931F93CF93DF931F924A
:102A3000CDB7DEB74C018A01E22E69830E94E5140E
:102A4000D401DB968C91DB97698187FD09C05F9685
:102A5000ED91FC9190979081D6968C9189238083FB
:102A6000D4019196ED91FC9192979081D8968C919A
:102A700089238083C4010E941114D4019196ED91A1
:102A8000FC9192979081D7968C91892B8083C12C51
:102A9000D12CF12CCE14DF04ECF4F40181AD8230A2
:102AA00059F484A9882341F0D8016D917D918D015D
:102AB000C4010E9449130AC05801BFEFAB1ABB0AF8
:102AC000F8016491C4010E9411148501FFEFCF1A2F
:102AD000DF0AE0CFD401DB968C91DB9787FD09C03C
:102AE0005F96ED91FC9190979081D5968C91892B72
:102AF00080830F90DF91CF911F910F91FF90EF9006
:102B0000DF90CF90BF90AF909F908F9008953FB788
:102B1000F89480913F0290914002A0914102B091BF
:102B2000420226B5A89B05C02F3F19F00196A11DB2
:102B3000B11D3FBFBA2FA92F982F8827820F911D53
:102B4000A11DB11DBC01CD0142E0660F771F881F9A
:102B5000991F4A95D1F70895CF92DF92EF92FF9295
:102B60000F931F93CF93DF936C017A018B01C0E029
:102B7000D0E0CE15DF0589F0D8016D918D01D60129
:102B8000ED91FC910190F081E02DC6010995892B12
:102B900011F47E0102C02196ECCFC701DF91CF91E5
:102BA0001F910F91FF90EF90DF90CF9008950E94BA
:102BB000CA1A90E0FC01EE58F34F3491FC01EA5739
:102BC000F34F2491FC01EC55F34FE491EE2309F40B
:102BD0003BC0332339F1333091F038F43130A9F070
:102BE000323001F584B58F7D12C0373091F0383026
:102BF000A1F03430B9F4809180008F7D03C08091C2
:102C000080008F77809380000DC084B58F7784BD5E
:102C100009C08091B0008F7703C08091B0008F7D94
:102C20008093B000F0E0EE0FFF1FE656F34FA59142
:102C3000B4918FB7F894EC91611103C020952E23C5
:102C400001C02E2B2C938FBF0895CF93DF9390E07C
:102C5000FC01EA57F34F2491FC01EC55F34F8491AA
:102C6000882361F190E0880F991FFC01E859F34F28
:102C7000C591D491FC01E656F34FA591B491611131
:102C800009C09FB7F8948881209582238883EC91AE
:102C90002E230BC0623061F49FB7F8943881822FE5
:102CA000809583238883EC912E2B2C939FBF06C0A5
:102CB0008FB7F894E8812E2B28838FBFDF91CF91B7
:102CC00008958F929F92AF92BF92CF92DF92EF9230
:102CD000FF926B017C010E9487154B015C01C114BE
:102CE000D104E104F104F1F00E948715DC01CB016D
:102CF00088199909AA09BB09883E9340A105B10525
:102D000070F321E0C21AD108E108F10888EE880EBC
:102D100083E0981EA11CB11CC114D104E104F1048C
:102D200019F7DDCFFF90EF90DF90CF90BF90AF907D
:102D30009F908F9008951F920F920FB60F921124BB
:102D40002F933F938F939F93AF93BF9380913B02B9
:102D500090913C02A0913D02B0913E0230913A0226
:102D600023E0230F2D3720F40196A11DB11D05C0CE
:102D700026E8230F0296A11DB11D20933A028093ED
:102D80003B0290933C02A0933D02B0933E0280919F
:102D90003F0290914002A0914102B09142020196FF
:102DA000A11DB11D80933F0290934002A093410268
:102DB000B0934202BF91AF919F918F913F912F911C
:102DC0000F900FBE0F901F9018951F920F920FB685
:102DD0000F9211242F933F934F935F936F937F93A1
:102DE0008F939F93AF93BF93EF93FF938091B9001D
:102DF000887F803609F49CC068F5883209F45BC08E
:102E000090F4803109F454C038F4882309F4F6C0F2
:102E1000883009F44DC0F6C0883109F44CC08032C6
:102E200009F45DC0EFC0803409F468C048F4803311
:102E300009F455C0883309F0E5C080931402D8C066
:102E4000803509F44FC0883509F45DC0883409F035
:102E5000D9C0D6C0883909F4C7C0A8F4883709F4A6
:102E600067C038F4883609F463C0803709F460C05D
:102E7000C9C0883809F4B8C0803909F45FC0803807
:102E800009F0C0C05BC0803B09F486C038F4803ACA
:102E900009F466C0883A09F47FC0B4C0803C09F4E4
:102EA000A7C0883C09F4A4C0883B09F48AC0AAC022
:102EB0008091390210C090913802809137029817A2
:102EC00070F5E091380281E08E0F80933802F0E0D7
:102ED000E95EFD4F80818093BB0085EC86C08093C6
:102EE00014028EC0E091380281E08E0F8093380288
:102EF0008091BB00F0E0E95EFD4F80839091380245
:102F0000809137026EC0E091380281E08E0F80938D
:102F100038028091BB00F0E0E95EFD4F8083809134
:102F2000160281116DC081E08093150284EA61C0B0
:102F300083E08093A50110921302CFCF80911302FA
:102F4000803208F051C0E091130281E08E0F80932F
:102F500013028091BB00F0E0ED50FE4F8083BDCFA7
:102F600085EC8093BC001092A50180911302803201
:102F700030F4E0911302F0E0ED50FE4F10826091CA
:102F8000130270E0E091F101F091F20183EF91E022
:102F900009951092130236C084E08093A501109227
:102FA000F0011092A401E091EE01F091EF0109957A
:102FB0008091A401811105C081E08093A401109249
:102FC0008401E091F00181E08E0F8093F001F0E048
:102FD000EC57FE4F80818093BB009091F00180916F
:102FE000A401981708F479CF85E88093BC000AC043
:102FF00085EC8093BC001092A50104C010921402CD
:103000000E940713FF91EF91BF91AF919F918F9114
:103010007F916F915F914F913F912F910F900FBED4
:103020000F901F9018950895E3E4F2E01382128246
:1030300088EE93E0A0E0B0E084839583A683B78315
:1030400082E191E091838083A7EAB1E013961C921C
:103050001E92129720EF30E015963C932E93149712
:1030600080E491E017969C938E93169719963C9363
:103070002E9318971B969C938E931A9756961C9294
:1030800056971D961C921E921C971F961C921E927C
:103090001E9781E055968C93559754968C93549730
:1030A0002FEF3FEF53963C932E93529751963C93BC
:1030B0002E93509757968C93579758961C925897E3
:1030C0005A961C921E9259971092A601D9961C925C
:1030D000D9978FEFDA968C93DA978AE0DB968C9308
:1030E000DB9789E0DC968C93DC971092E5011092D7
:1030F000E4011092E7011092E6011092E8011092AB
:10310000E9011092EA011092EB011092EC01109289
:10311000ED018FE492E094969C938E939397EDEA61
:10312000FCE0E491F0E0EE0FFF1FE656F34F8591CF
:10313000949192969C938E939197EFE8FCE0849102
:10314000D7968C93D797EEEAFCE0E491F0E0EE0F8F
:10315000FF1FE656F34F2591349190963C932E93A2
:103160005F97E0E9FCE0E491D596EC93D597E09584
:10317000D696EC93D697E82FE095D896EC93D8970F
:1031800084E591E08D939C930895789484B5826052
:1031900084BD84B5816084BD85B5826085BD85B5FB
:1031A000816085BD80916E00816080936E00109279
:1031B00081008091810082608093810080918100F4
:1031C0008160809381008091800081608093800085
:1031D0008091B10084608093B1008091B0008160E3
:1031E0008093B00080917A00846080937A0080910F
:1031F0007A00826080937A0080917A008160809367
:103200007A0080917A00806880937A001092C100E1
:1032100040E050E0BA0187EA91E00E94E1098FE5C1
:103220009CE09093C1018093C001E1E6FCE08591B0
:103230009491FC012591349181E0232B09F480E0E5
:103240008093A6018FEE93E0A0E0B0E08093C201EE
:103250009093C301A093C401B093C50180E098EF9F
:103260009093BA018093B9019093B8018093B7010C
:1032700082E08093BB018093BC011092B401109254
:10328000B3018EE190E09093B6018093B501C2E264
:103290006C2F87EA91E00E947F0ECF5FCF37C1F796
:1032A000C0E0D0E02097F1F30E940000FBCFA1E244
:1032B0001A2EAA1BBB1BFD010DC0AA1FBB1FEE1FB0
:1032C000FF1FA217B307E407F50720F0A21BB30BFB
:1032D000E40BF50B661F771F881F991F1A9469F777
:1032E00060957095809590959B01AC01BD01CF01D3
:1032F00008950E948119332312F48A1B9B0B0C94AE
:103300009219A29FB001B39FC001A39F700D811DB0
:103310001124911DB29F700D811D1124911D0895DE
:103320000E948119B7FF0895821B930B0895EE0F39
:10333000FF1F0590F491E02D0994CF93DF93823025
:10334000910510F482E090E0E0915202F091530276
:1033500020E030E0C0E0D0E0309711F140815181B1
:1033600048175907C0F04817590761F482819381C3
:10337000209719F09B838A832BC0909353028093EC
:10338000520226C02115310519F04217530718F4CF
:103390009A01BE01DF01EF010280F381E02DDCCF55
:1033A0002115310509F1281B390B2430310590F422
:1033B00012968D919C9113976115710521F0FB0177
:1033C0009383828304C09093530280935202FD0141
:1033D000329644C0FD01E20FF31F81939193225076
:1033E00031092D933C933AC0209150023091510203
:1033F000232B41F420910A0130910B0130935102AB
:1034000020935002209108013091090121153105C6
:1034100041F42DB73EB740910C0150910D01241B92
:10342000350BE0915002F0915102E217F307A0F43E
:103430002E1B3F0B2817390778F0AC014E5F5F4F0A
:103440002417350748F04E0F5F1F509351024093E9
:1034500050028193919302C0E0E0F0E0CF01DF9150
:10346000CF9108950F931F93CF93DF93009709F4A3
:103470008CC0FC013297138212820091520210918B
:1034800053020115110581F420813181820F931FB0
:1034900020915002309151022817390779F5F093A5
:1034A0005102E093500271C0D80140E050E0AE17E5
:1034B000BF0750F412962D913C911397AD01211541
:1034C000310509F1D901F3CF9D01DA01338322835C
:1034D00060817181860F971F8217930769F4EC0151
:1034E00028813981260F371F2E5F3F4F318320837C
:1034F0008A819B8193838283452B29F4F093530225
:10350000E093520242C01396FC93EE931297ED01A2
:10351000499159919E01240F351FE217F30771F469
:1035200080819181840F951F029611969C938E93B2
:103530008281938113969C938E931297E0E0F0E042
:10354000D80112968D919C911397009719F0F8016C
:103550008C01F6CF8D919C9198012E5F3F4F820F89
:10356000931F20915002309151022817390769F4B6
:10357000309729F4109253021092520202C0138223
:1035800012821093510200935002DF91CF911F914C
:103590000F91089581E090E0F8940C94D61ADC0124
:1035A00001C06D9341505040E0F7089516E0CDE51D
:1035B000D6E004C0FE010E9497192196CE35D107AE
:0635C000C9F7F894FFCFEB
:1035C600FFFFFFFFFFFFFFFF000054028000000027
:1035D6000000A10F8D0F47097F0F860F830F800F05
:1035E600000000007F0EAC15470946098F13EE1444
:1035F600DF139C1217125A129C08001589065314E1
:103606006F10ED106B117407FD069E06D715D715C2
:10361600000000007F0EAC15470946098F13EE1413
:10362600DF139C1217125A129C08001554094A09F6
:103636006F10ED106B117407FD069E06E1097D14EF
:00000001FF
